{"contracts/RollingRaffle.sol":{"RollingRaffle":{"abi":[{"inputs":[],"stateMutability":"nonpayable","type":"constructor"},{"anonymous":false,"inputs":[{"indexed":true,"internalType":"address","name":"to","type":"address"},{"indexed":false,"internalType":"uint256","name":"amount","type":"uint256"}],"name":"FeeSent","type":"event"},{"anonymous":false,"inputs":[{"indexed":true,"internalType":"address","name":"player","type":"address"},{"indexed":false,"internalType":"uint256","name":"quantity","type":"uint256"},{"indexed":false,"internalType":"uint256","name":"totalAmount","type":"uint256"},{"indexed":false,"internalType":"uint256","name":"pot","type":"uint256"}],"name":"MultipleTicketsBought","type":"event"},{"anonymous":false,"inputs":[{"indexed":true,"internalType":"address","name":"previousOwner","type":"address"},{"indexed":true,"internalType":"address","name":"newOwner","type":"address"}],"name":"OwnershipTransferred","type":"event"},{"anonymous":false,"inputs":[{"indexed":true,"internalType":"address","name":"player","type":"address"},{"indexed":false,"internalType":"uint256","name":"amount","type":"uint256"},{"indexed":false,"internalType":"uint256","name":"pot","type":"uint256"},{"indexed":false,"internalType":"bool","name":"won","type":"bool"}],"name":"TicketBought","type":"event"},{"anonymous":false,"inputs":[{"indexed":true,"internalType":"address","name":"player","type":"address"},{"indexed":false,"internalType":"uint256","name":"prizeAmount","type":"uint256"}],"name":"Winner","type":"event"},{"inputs":[],"name":"FEE_PERCENTAGE","outputs":[{"internalType":"uint256","name":"","type":"uint256"}],"stateMutability":"view","type":"function"},{"inputs":[],"name":"TICKET_PRICE","outputs":[{"internalType":"uint256","name":"","type":"uint256"}],"stateMutability":"view","type":"function"},{"inputs":[{"internalType":"uint256","name":"quantity","type":"uint256"}],"name":"buyMultipleTickets","outputs":[],"stateMutability":"payable","type":"function"},{"inputs":[],"name":"buyTicket","outputs":[],"stateMutability":"payable","type":"function"},{"inputs":[],"name":"feeCollector","outputs":[{"internalType":"address","name":"","type":"address"}],"stateMutability":"view","type":"function"},{"inputs":[],"name":"getPot","outputs":[{"internalType":"uint256","name":"","type":"uint256"}],"stateMutability":"view","type":"function"},{"inputs":[],"name":"lastWinAmount","outputs":[{"internalType":"uint256","name":"","type":"uint256"}],"stateMutability":"view","type":"function"},{"inputs":[],"name":"lastWinner","outputs":[{"internalType":"address","name":"","type":"address"}],"stateMutability":"view","type":"function"},{"inputs":[],"name":"owner","outputs":[{"internalType":"address","name":"","type":"address"}],"stateMutability":"view","type":"function"},{"inputs":[],"name":"pot","outputs":[{"internalType":"uint256","name":"","type":"uint256"}],"stateMutability":"view","type":"function"},{"inputs":[],"name":"renounceOwnership","outputs":[],"stateMutability":"nonpayable","type":"function"},{"inputs":[],"name":"rescueETH","outputs":[],"stateMutability":"nonpayable","type":"function"},{"inputs":[{"internalType":"address","name":"newOwner","type":"address"}],"name":"transferOwnership","outputs":[],"stateMutability":"nonpayable","type":"function"},{"inputs":[{"internalType":"address","name":"_feeCollector","type":"address"}],"name":"updateFeeCollector","outputs":[],"stateMutability":"nonpayable","type":"function"},{"inputs":[{"internalType":"uint256","name":"_winChance","type":"uint256"}],"name":"updateWinChance","outputs":[],"stateMutability":"nonpayable","type":"function"},{"inputs":[],"name":"winChance","outputs":[{"internalType":"uint256","name":"","type":"uint256"}],"stateMutability":"view","type":"function"}],"evm":{"bytecode":{"linkReferences":{},"object":"6080604052603260035534801561001557600080fd5b5061001f3361003a565b60018055600480546001600160a01b0319163317905561008a565b600080546001600160a01b038381166001600160a01b0319831681178455604051919092169283917f8be0079c531659141344cd1fd0a4f28419497f9722a3daafe3b4186f6b6457e09190a35050565b611052806100996000396000f3fe6080604052600436106100f25760003560e01c80637223f06e1161008a578063d2c35ce811610059578063d2c35ce814610242578063edca914c14610262578063f2fde38b1461026a578063fe1881841461028a57600080fd5b80637223f06e146101ba5780638da5cb5b146101da57806398ec58fd1461020c578063c415b95c1461022257600080fd5b8063403c9fa8116100c6578063403c9fa8146101645780634ba2363a146101795780636dbeffbe1461018f578063715018a6146101a557600080fd5b80620b46f8146100f75780631a95f15f1461011f57806320800a001461013a57806320c94be814610151575b600080fd5b34801561010357600080fd5b5061010c600a81565b6040519081526020015b60405180910390f35b34801561012b57600080fd5b5061010c6608e1bc9bf0400081565b34801561014657600080fd5b5061014f6102aa565b005b61014f61015f366004610f03565b610391565b34801561017057600080fd5b5060025461010c565b34801561018557600080fd5b5061010c60025481565b34801561019b57600080fd5b5061010c60035481565b3480156101b157600080fd5b5061014f610864565b3480156101c657600080fd5b5061014f6101d5366004610f03565b610878565b3480156101e657600080fd5b506000546001600160a01b03165b6040516001600160a01b039091168152602001610116565b34801561021857600080fd5b5061010c60065481565b34801561022e57600080fd5b506004546101f4906001600160a01b031681565b34801561024e57600080fd5b5061014f61025d366004610f1c565b6108df565b61014f610951565b34801561027657600080fd5b5061014f610285366004610f1c565b6109c0565b34801561029657600080fd5b506005546101f4906001600160a01b031681565b6102b2610a36565b47806102f85760405162461bcd60e51b815260206004820152601060248201526f4e6f2045544820746f2072657363756560801b60448201526064015b60405180910390fd5b600080546040516001600160a01b039091169083908381818185875af1925050503d8060008114610345576040519150601f19603f3d011682016040523d82523d6000602084013e61034a565b606091505b505090508061038d5760405162461bcd60e51b815260206004820152600f60248201526e151c985b9cd9995c8819985a5b1959608a1b60448201526064016102ef565b5050565b610399610a90565b600081116103e95760405162461bcd60e51b815260206004820152601c60248201527f4d75737420627579206174206c65617374206f6e65207469636b65740000000060448201526064016102ef565b6103fa816608e1bc9bf04000610f62565b34146104485760405162461bcd60e51b815260206004820181905260248201527f496e636f72726563742045544820616d6f756e7420666f72207469636b65747360448201526064016102ef565b6000808060005b8481101561070c576000606461046d600a6608e1bc9bf04000610f62565b6104779190610f95565b9050600061048c826608e1bc9bf04000610fa9565b6004546040519192506000916001600160a01b039091169084908381818185875af1925050503d80600081146104de576040519150601f19603f3d011682016040523d82523d6000602084013e6104e3565b606091505b505090508061052a5760405162461bcd60e51b8152602060048201526013602482015272119959481d1c985b9cd9995c8819985a5b1959606a1b60448201526064016102ef565b6004546040518481526001600160a01b0390911690600080516020610ffd8339815191529060200160405180910390a2816002600082825461056c9190610fbc565b909155506000905061057c610ae9565b905080801561058d57506000600254115b156106f5576001975033965060006064600a6002546105ac9190610f62565b6105b69190610f95565b9050806002546105c69190610fa9565b600580546001600160a01b0319163317905560068190556000600281905560045460405192995090916001600160a01b039091169083908381818185875af1925050503d8060008114610635576040519150601f19603f3d011682016040523d82523d6000602084013e61063a565b606091505b50509050806106855760405162461bcd60e51b8152602060048201526017602482015276141bdd08199959481d1c985b9cd9995c8819985a5b1959604a1b60448201526064016102ef565b6004546040518381526001600160a01b0390911690600080516020610ffd8339815191529060200160405180910390a260405188815233907f9c2270628a9b29d30ae96b6c4c14ed646ee134febdce38a5b77f2bde9cea2e209060200160405180910390a250505050505061070c565b50505050808061070490610fcf565b91505061044f565b5082156107b1576000826001600160a01b03168260405160006040518083038185875af1925050503d8060008114610760576040519150601f19603f3d011682016040523d82523d6000602084013e610765565b606091505b50509050806107af5760405162461bcd60e51b815260206004820152601660248201527515da5b9b995c881d1c985b9cd9995c8819985a5b195960521b60448201526064016102ef565b505b337f193c33ec72695019bb235376e1047b07f5d0a70e5a1c8892cee5bee0af48d169856107e5816608e1bc9bf04000610f62565b6002546040805193845260208401929092529082015260600160405180910390a2600254604080516608e1bc9bf04000815260208101929092528415159082015233907f5ac4cc4a151d8ce2d7503bfbdac383f6409f30e99f6b144e5c96ef2eb29cdd6c9060600160405180910390a250505061086160018055565b50565b61086c610a36565b6108766000610b4f565b565b610880610a36565b600081116108da5760405162461bcd60e51b815260206004820152602160248201527f57696e206368616e6365206d7573742062652067726561746572207468616e206044820152600360fc1b60648201526084016102ef565b600355565b6108e7610a36565b6001600160a01b03811661092f5760405162461bcd60e51b815260206004820152600f60248201526e496e76616c6964206164647265737360881b60448201526064016102ef565b600480546001600160a01b0319166001600160a01b0392909216919091179055565b610959610a90565b6608e1bc9bf0400034146109af5760405162461bcd60e51b815260206004820152601c60248201527f4d7573742073656e642065786163746c7920302e30303235204554480000000060448201526064016102ef565b6109b7610b9f565b61087660018055565b6109c8610a36565b6001600160a01b038116610a2d5760405162461bcd60e51b815260206004820152602660248201527f4f776e61626c653a206e6577206f776e657220697320746865207a65726f206160448201526564647265737360d01b60648201526084016102ef565b61086181610b4f565b6000546001600160a01b031633146108765760405162461bcd60e51b815260206004820181905260248201527f4f776e61626c653a2063616c6c6572206973206e6f7420746865206f776e657260448201526064016102ef565b600260015403610ae25760405162461bcd60e51b815260206004820152601f60248201527f5265656e7472616e637947756172643a207265656e7472616e742063616c6c0060448201526064016102ef565b6002600155565b6000806003544442335a6040805160208101959095528401929092526bffffffffffffffffffffffff19606091821b169083015260748201526094016040516020818303038152906040528051906020012060001c610b489190610fe8565b1592915050565b600080546001600160a01b038381166001600160a01b0319831681178455604051919092169283917f8be0079c531659141344cd1fd0a4f28419497f9722a3daafe3b4186f6b6457e09190a35050565b60006064610bae600a34610f62565b610bb89190610f95565b90506000610bc68234610fa9565b6004546040519192506000916001600160a01b039091169084908381818185875af1925050503d8060008114610c18576040519150601f19603f3d011682016040523d82523d6000602084013e610c1d565b606091505b5050905080610c645760405162461bcd60e51b8152602060048201526013602482015272119959481d1c985b9cd9995c8819985a5b1959606a1b60448201526064016102ef565b6004546040518481526001600160a01b0390911690600080516020610ffd8339815191529060200160405180910390a28160026000828254610ca69190610fbc565b9091555060009050610cb6610ae9565b9050808015610cc757506000600254115b15610eb55760006064600a600254610cdf9190610f62565b610ce99190610f95565b9050600081600254610cfb9190610fa9565b600580546001600160a01b0319163317905560068190556000600281905560045460405192935090916001600160a01b039091169084908381818185875af1925050503d8060008114610d6a576040519150601f19603f3d011682016040523d82523d6000602084013e610d6f565b606091505b5050905080610dba5760405162461bcd60e51b8152602060048201526017602482015276141bdd08199959481d1c985b9cd9995c8819985a5b1959604a1b60448201526064016102ef565b6004546040518481526001600160a01b0390911690600080516020610ffd8339815191529060200160405180910390a2604051600090339084908381818185875af1925050503d8060008114610e2c576040519150601f19603f3d011682016040523d82523d6000602084013e610e31565b606091505b5050905080610e7b5760405162461bcd60e51b815260206004820152601660248201527515da5b9b995c881d1c985b9cd9995c8819985a5b195960521b60448201526064016102ef565b60405183815233907f9c2270628a9b29d30ae96b6c4c14ed646ee134febdce38a5b77f2bde9cea2e209060200160405180910390a2505050505b6002546040805134815260208101929092528215159082015233907f5ac4cc4a151d8ce2d7503bfbdac383f6409f30e99f6b144e5c96ef2eb29cdd6c9060600160405180910390a250505050565b600060208284031215610f1557600080fd5b5035919050565b600060208284031215610f2e57600080fd5b81356001600160a01b0381168114610f4557600080fd5b9392505050565b634e487b7160e01b600052601160045260246000fd5b8082028115828204841417610f7957610f79610f4c565b92915050565b634e487b7160e01b600052601260045260246000fd5b600082610fa457610fa4610f7f565b500490565b81810381811115610f7957610f79610f4c565b80820180821115610f7957610f79610f4c565b600060018201610fe157610fe1610f4c565b5060010190565b600082610ff757610ff7610f7f565b50069056fe58793df5f4d270351f09efd433db93c69432142b69dc7ee38195fc630478c79fa2646970667358221220e35a61ed75e48bf59f99686d14d31bf129bb6204eb4cdb0e67a6c02bd4eac18564736f6c63430008140033","opcodes":"PUSH1 0x80 PUSH1 0x40 MSTORE PUSH1 0x32 PUSH1 0x3 SSTORE CALLVALUE DUP1 ISZERO PUSH2 0x15 JUMPI PUSH1 0x0 DUP1 REVERT JUMPDEST POP PUSH2 0x1F CALLER PUSH2 0x3A JUMP JUMPDEST PUSH1 0x1 DUP1 SSTORE PUSH1 0x4 DUP1 SLOAD PUSH1 0x1 PUSH1 0x1 PUSH1 0xA0 SHL SUB NOT AND CALLER OR SWAP1 SSTORE PUSH2 0x8A JUMP JUMPDEST PUSH1 0x0 DUP1 SLOAD PUSH1 0x1 PUSH1 0x1 PUSH1 0xA0 SHL SUB DUP4 DUP2 AND PUSH1 0x1 PUSH1 0x1 PUSH1 0xA0 SHL SUB NOT DUP4 AND DUP2 OR DUP5 SSTORE PUSH1 0x40 MLOAD SWAP2 SWAP1 SWAP3 AND SWAP3 DUP4 SWAP2 PUSH32 0x8BE0079C531659141344CD1FD0A4F28419497F9722A3DAAFE3B4186F6B6457E0 SWAP2 SWAP1 LOG3 POP POP JUMP JUMPDEST PUSH2 0x1052 DUP1 PUSH2 0x99 PUSH1 0x0 CODECOPY PUSH1 0x0 RETURN INVALID PUSH1 0x80 PUSH1 0x40 MSTORE PUSH1 0x4 CALLDATASIZE LT PUSH2 0xF2 JUMPI PUSH1 0x0 CALLDATALOAD PUSH1 0xE0 SHR DUP1 PUSH4 0x7223F06E GT PUSH2 0x8A JUMPI DUP1 PUSH4 0xD2C35CE8 GT PUSH2 0x59 JUMPI DUP1 PUSH4 0xD2C35CE8 EQ PUSH2 0x242 JUMPI DUP1 PUSH4 0xEDCA914C EQ PUSH2 0x262 JUMPI DUP1 PUSH4 0xF2FDE38B EQ PUSH2 0x26A JUMPI DUP1 PUSH4 0xFE188184 EQ PUSH2 0x28A JUMPI PUSH1 0x0 DUP1 REVERT JUMPDEST DUP1 PUSH4 0x7223F06E EQ PUSH2 0x1BA JUMPI DUP1 PUSH4 0x8DA5CB5B EQ PUSH2 0x1DA JUMPI DUP1 PUSH4 0x98EC58FD EQ PUSH2 0x20C JUMPI DUP1 PUSH4 0xC415B95C EQ PUSH2 0x222 JUMPI PUSH1 0x0 DUP1 REVERT JUMPDEST DUP1 PUSH4 0x403C9FA8 GT PUSH2 0xC6 JUMPI DUP1 PUSH4 0x403C9FA8 EQ PUSH2 0x164 JUMPI DUP1 PUSH4 0x4BA2363A EQ PUSH2 0x179 JUMPI DUP1 PUSH4 0x6DBEFFBE EQ PUSH2 0x18F JUMPI DUP1 PUSH4 0x715018A6 EQ PUSH2 0x1A5 JUMPI PUSH1 0x0 DUP1 REVERT JUMPDEST DUP1 PUSH3 0xB46F8 EQ PUSH2 0xF7 JUMPI DUP1 PUSH4 0x1A95F15F EQ PUSH2 0x11F JUMPI DUP1 PUSH4 0x20800A00 EQ PUSH2 0x13A JUMPI DUP1 PUSH4 0x20C94BE8 EQ PUSH2 0x151 JUMPI JUMPDEST PUSH1 0x0 DUP1 REVERT JUMPDEST CALLVALUE DUP1 ISZERO PUSH2 0x103 JUMPI PUSH1 0x0 DUP1 REVERT JUMPDEST POP PUSH2 0x10C PUSH1 0xA DUP2 JUMP JUMPDEST PUSH1 0x40 MLOAD SWAP1 DUP2 MSTORE PUSH1 0x20 ADD JUMPDEST PUSH1 0x40 MLOAD DUP1 SWAP2 SUB SWAP1 RETURN JUMPDEST CALLVALUE DUP1 ISZERO PUSH2 0x12B JUMPI PUSH1 0x0 DUP1 REVERT JUMPDEST POP PUSH2 0x10C PUSH7 0x8E1BC9BF04000 DUP2 JUMP JUMPDEST CALLVALUE DUP1 ISZERO PUSH2 0x146 JUMPI PUSH1 0x0 DUP1 REVERT JUMPDEST POP PUSH2 0x14F PUSH2 0x2AA JUMP JUMPDEST STOP JUMPDEST PUSH2 0x14F PUSH2 0x15F CALLDATASIZE PUSH1 0x4 PUSH2 0xF03 JUMP JUMPDEST PUSH2 0x391 JUMP JUMPDEST CALLVALUE DUP1 ISZERO PUSH2 0x170 JUMPI PUSH1 0x0 DUP1 REVERT JUMPDEST POP PUSH1 0x2 SLOAD PUSH2 0x10C JUMP JUMPDEST CALLVALUE DUP1 ISZERO PUSH2 0x185 JUMPI PUSH1 0x0 DUP1 REVERT JUMPDEST POP PUSH2 0x10C PUSH1 0x2 SLOAD DUP2 JUMP JUMPDEST CALLVALUE DUP1 ISZERO PUSH2 0x19B JUMPI PUSH1 0x0 DUP1 REVERT JUMPDEST POP PUSH2 0x10C PUSH1 0x3 SLOAD DUP2 JUMP JUMPDEST CALLVALUE DUP1 ISZERO PUSH2 0x1B1 JUMPI PUSH1 0x0 DUP1 REVERT JUMPDEST POP PUSH2 0x14F PUSH2 0x864 JUMP JUMPDEST CALLVALUE DUP1 ISZERO PUSH2 0x1C6 JUMPI PUSH1 0x0 DUP1 REVERT JUMPDEST POP PUSH2 0x14F PUSH2 0x1D5 CALLDATASIZE PUSH1 0x4 PUSH2 0xF03 JUMP JUMPDEST PUSH2 0x878 JUMP JUMPDEST CALLVALUE DUP1 ISZERO PUSH2 0x1E6 JUMPI PUSH1 0x0 DUP1 REVERT JUMPDEST POP PUSH1 0x0 SLOAD PUSH1 0x1 PUSH1 0x1 PUSH1 0xA0 SHL SUB AND JUMPDEST PUSH1 0x40 MLOAD PUSH1 0x1 PUSH1 0x1 PUSH1 0xA0 SHL SUB SWAP1 SWAP2 AND DUP2 MSTORE PUSH1 0x20 ADD PUSH2 0x116 JUMP JUMPDEST CALLVALUE DUP1 ISZERO PUSH2 0x218 JUMPI PUSH1 0x0 DUP1 REVERT JUMPDEST POP PUSH2 0x10C PUSH1 0x6 SLOAD DUP2 JUMP JUMPDEST CALLVALUE DUP1 ISZERO PUSH2 0x22E JUMPI PUSH1 0x0 DUP1 REVERT JUMPDEST POP PUSH1 0x4 SLOAD PUSH2 0x1F4 SWAP1 PUSH1 0x1 PUSH1 0x1 PUSH1 0xA0 SHL SUB AND DUP2 JUMP JUMPDEST CALLVALUE DUP1 ISZERO PUSH2 0x24E JUMPI PUSH1 0x0 DUP1 REVERT JUMPDEST POP PUSH2 0x14F PUSH2 0x25D CALLDATASIZE PUSH1 0x4 PUSH2 0xF1C JUMP JUMPDEST PUSH2 0x8DF JUMP JUMPDEST PUSH2 0x14F PUSH2 0x951 JUMP JUMPDEST CALLVALUE DUP1 ISZERO PUSH2 0x276 JUMPI PUSH1 0x0 DUP1 REVERT JUMPDEST POP PUSH2 0x14F PUSH2 0x285 CALLDATASIZE PUSH1 0x4 PUSH2 0xF1C JUMP JUMPDEST PUSH2 0x9C0 JUMP JUMPDEST CALLVALUE DUP1 ISZERO PUSH2 0x296 JUMPI PUSH1 0x0 DUP1 REVERT JUMPDEST POP PUSH1 0x5 SLOAD PUSH2 0x1F4 SWAP1 PUSH1 0x1 PUSH1 0x1 PUSH1 0xA0 SHL SUB AND DUP2 JUMP JUMPDEST PUSH2 0x2B2 PUSH2 0xA36 JUMP JUMPDEST SELFBALANCE DUP1 PUSH2 0x2F8 JUMPI PUSH1 0x40 MLOAD PUSH3 0x461BCD PUSH1 0xE5 SHL DUP2 MSTORE PUSH1 0x20 PUSH1 0x4 DUP3 ADD MSTORE PUSH1 0x10 PUSH1 0x24 DUP3 ADD MSTORE PUSH16 0x4E6F2045544820746F20726573637565 PUSH1 0x80 SHL PUSH1 0x44 DUP3 ADD MSTORE PUSH1 0x64 ADD JUMPDEST PUSH1 0x40 MLOAD DUP1 SWAP2 SUB SWAP1 REVERT JUMPDEST PUSH1 0x0 DUP1 SLOAD PUSH1 0x40 MLOAD PUSH1 0x1 PUSH1 0x1 PUSH1 0xA0 SHL SUB SWAP1 SWAP2 AND SWAP1 DUP4 SWAP1 DUP4 DUP2 DUP2 DUP2 DUP6 DUP8 GAS CALL SWAP3 POP POP POP RETURNDATASIZE DUP1 PUSH1 0x0 DUP2 EQ PUSH2 0x345 JUMPI PUSH1 0x40 MLOAD SWAP2 POP PUSH1 0x1F NOT PUSH1 0x3F RETURNDATASIZE ADD AND DUP3 ADD PUSH1 0x40 MSTORE RETURNDATASIZE DUP3 MSTORE RETURNDATASIZE PUSH1 0x0 PUSH1 0x20 DUP5 ADD RETURNDATACOPY PUSH2 0x34A JUMP JUMPDEST PUSH1 0x60 SWAP2 POP JUMPDEST POP POP SWAP1 POP DUP1 PUSH2 0x38D JUMPI PUSH1 0x40 MLOAD PUSH3 0x461BCD PUSH1 0xE5 SHL DUP2 MSTORE PUSH1 0x20 PUSH1 0x4 DUP3 ADD MSTORE PUSH1 0xF PUSH1 0x24 DUP3 ADD MSTORE PUSH15 0x151C985B9CD9995C8819985A5B1959 PUSH1 0x8A SHL PUSH1 0x44 DUP3 ADD MSTORE PUSH1 0x64 ADD PUSH2 0x2EF JUMP JUMPDEST POP POP JUMP JUMPDEST PUSH2 0x399 PUSH2 0xA90 JUMP JUMPDEST PUSH1 0x0 DUP2 GT PUSH2 0x3E9 JUMPI PUSH1 0x40 MLOAD PUSH3 0x461BCD PUSH1 0xE5 SHL DUP2 MSTORE PUSH1 0x20 PUSH1 0x4 DUP3 ADD MSTORE PUSH1 0x1C PUSH1 0x24 DUP3 ADD MSTORE PUSH32 0x4D75737420627579206174206C65617374206F6E65207469636B657400000000 PUSH1 0x44 DUP3 ADD MSTORE PUSH1 0x64 ADD PUSH2 0x2EF JUMP JUMPDEST PUSH2 0x3FA DUP2 PUSH7 0x8E1BC9BF04000 PUSH2 0xF62 JUMP JUMPDEST CALLVALUE EQ PUSH2 0x448 JUMPI PUSH1 0x40 MLOAD PUSH3 0x461BCD PUSH1 0xE5 SHL DUP2 MSTORE PUSH1 0x20 PUSH1 0x4 DUP3 ADD DUP2 SWAP1 MSTORE PUSH1 0x24 DUP3 ADD MSTORE PUSH32 0x496E636F72726563742045544820616D6F756E7420666F72207469636B657473 PUSH1 0x44 DUP3 ADD MSTORE PUSH1 0x64 ADD PUSH2 0x2EF JUMP JUMPDEST PUSH1 0x0 DUP1 DUP1 PUSH1 0x0 JUMPDEST DUP5 DUP2 LT ISZERO PUSH2 0x70C JUMPI PUSH1 0x0 PUSH1 0x64 PUSH2 0x46D PUSH1 0xA PUSH7 0x8E1BC9BF04000 PUSH2 0xF62 JUMP JUMPDEST PUSH2 0x477 SWAP2 SWAP1 PUSH2 0xF95 JUMP JUMPDEST SWAP1 POP PUSH1 0x0 PUSH2 0x48C DUP3 PUSH7 0x8E1BC9BF04000 PUSH2 0xFA9 JUMP JUMPDEST PUSH1 0x4 SLOAD PUSH1 0x40 MLOAD SWAP2 SWAP3 POP PUSH1 0x0 SWAP2 PUSH1 0x1 PUSH1 0x1 PUSH1 0xA0 SHL SUB SWAP1 SWAP2 AND SWAP1 DUP5 SWAP1 DUP4 DUP2 DUP2 DUP2 DUP6 DUP8 GAS CALL SWAP3 POP POP POP RETURNDATASIZE DUP1 PUSH1 0x0 DUP2 EQ PUSH2 0x4DE JUMPI PUSH1 0x40 MLOAD SWAP2 POP PUSH1 0x1F NOT PUSH1 0x3F RETURNDATASIZE ADD AND DUP3 ADD PUSH1 0x40 MSTORE RETURNDATASIZE DUP3 MSTORE RETURNDATASIZE PUSH1 0x0 PUSH1 0x20 DUP5 ADD RETURNDATACOPY PUSH2 0x4E3 JUMP JUMPDEST PUSH1 0x60 SWAP2 POP JUMPDEST POP POP SWAP1 POP DUP1 PUSH2 0x52A JUMPI PUSH1 0x40 MLOAD PUSH3 0x461BCD PUSH1 0xE5 SHL DUP2 MSTORE PUSH1 0x20 PUSH1 0x4 DUP3 ADD MSTORE PUSH1 0x13 PUSH1 0x24 DUP3 ADD MSTORE PUSH19 0x119959481D1C985B9CD9995C8819985A5B1959 PUSH1 0x6A SHL PUSH1 0x44 DUP3 ADD MSTORE PUSH1 0x64 ADD PUSH2 0x2EF JUMP JUMPDEST PUSH1 0x4 SLOAD PUSH1 0x40 MLOAD DUP5 DUP2 MSTORE PUSH1 0x1 PUSH1 0x1 PUSH1 0xA0 SHL SUB SWAP1 SWAP2 AND SWAP1 PUSH1 0x0 DUP1 MLOAD PUSH1 0x20 PUSH2 0xFFD DUP4 CODECOPY DUP2 MLOAD SWAP2 MSTORE SWAP1 PUSH1 0x20 ADD PUSH1 0x40 MLOAD DUP1 SWAP2 SUB SWAP1 LOG2 DUP2 PUSH1 0x2 PUSH1 0x0 DUP3 DUP3 SLOAD PUSH2 0x56C SWAP2 SWAP1 PUSH2 0xFBC JUMP JUMPDEST SWAP1 SWAP2 SSTORE POP PUSH1 0x0 SWAP1 POP PUSH2 0x57C PUSH2 0xAE9 JUMP JUMPDEST SWAP1 POP DUP1 DUP1 ISZERO PUSH2 0x58D JUMPI POP PUSH1 0x0 PUSH1 0x2 SLOAD GT JUMPDEST ISZERO PUSH2 0x6F5 JUMPI PUSH1 0x1 SWAP8 POP CALLER SWAP7 POP PUSH1 0x0 PUSH1 0x64 PUSH1 0xA PUSH1 0x2 SLOAD PUSH2 0x5AC SWAP2 SWAP1 PUSH2 0xF62 JUMP JUMPDEST PUSH2 0x5B6 SWAP2 SWAP1 PUSH2 0xF95 JUMP JUMPDEST SWAP1 POP DUP1 PUSH1 0x2 SLOAD PUSH2 0x5C6 SWAP2 SWAP1 PUSH2 0xFA9 JUMP JUMPDEST PUSH1 0x5 DUP1 SLOAD PUSH1 0x1 PUSH1 0x1 PUSH1 0xA0 SHL SUB NOT AND CALLER OR SWAP1 SSTORE PUSH1 0x6 DUP2 SWAP1 SSTORE PUSH1 0x0 PUSH1 0x2 DUP2 SWAP1 SSTORE PUSH1 0x4 SLOAD PUSH1 0x40 MLOAD SWAP3 SWAP10 POP SWAP1 SWAP2 PUSH1 0x1 PUSH1 0x1 PUSH1 0xA0 SHL SUB SWAP1 SWAP2 AND SWAP1 DUP4 SWAP1 DUP4 DUP2 DUP2 DUP2 DUP6 DUP8 GAS CALL SWAP3 POP POP POP RETURNDATASIZE DUP1 PUSH1 0x0 DUP2 EQ PUSH2 0x635 JUMPI PUSH1 0x40 MLOAD SWAP2 POP PUSH1 0x1F NOT PUSH1 0x3F RETURNDATASIZE ADD AND DUP3 ADD PUSH1 0x40 MSTORE RETURNDATASIZE DUP3 MSTORE RETURNDATASIZE PUSH1 0x0 PUSH1 0x20 DUP5 ADD RETURNDATACOPY PUSH2 0x63A JUMP JUMPDEST PUSH1 0x60 SWAP2 POP JUMPDEST POP POP SWAP1 POP DUP1 PUSH2 0x685 JUMPI PUSH1 0x40 MLOAD PUSH3 0x461BCD PUSH1 0xE5 SHL DUP2 MSTORE PUSH1 0x20 PUSH1 0x4 DUP3 ADD MSTORE PUSH1 0x17 PUSH1 0x24 DUP3 ADD MSTORE PUSH23 0x141BDD08199959481D1C985B9CD9995C8819985A5B1959 PUSH1 0x4A SHL PUSH1 0x44 DUP3 ADD MSTORE PUSH1 0x64 ADD PUSH2 0x2EF JUMP JUMPDEST PUSH1 0x4 SLOAD PUSH1 0x40 MLOAD DUP4 DUP2 MSTORE PUSH1 0x1 PUSH1 0x1 PUSH1 0xA0 SHL SUB SWAP1 SWAP2 AND SWAP1 PUSH1 0x0 DUP1 MLOAD PUSH1 0x20 PUSH2 0xFFD DUP4 CODECOPY DUP2 MLOAD SWAP2 MSTORE SWAP1 PUSH1 0x20 ADD PUSH1 0x40 MLOAD DUP1 SWAP2 SUB SWAP1 LOG2 PUSH1 0x40 MLOAD DUP9 DUP2 MSTORE CALLER SWAP1 PUSH32 0x9C2270628A9B29D30AE96B6C4C14ED646EE134FEBDCE38A5B77F2BDE9CEA2E20 SWAP1 PUSH1 0x20 ADD PUSH1 0x40 MLOAD DUP1 SWAP2 SUB SWAP1 LOG2 POP POP POP POP POP POP PUSH2 0x70C JUMP JUMPDEST POP POP POP POP DUP1 DUP1 PUSH2 0x704 SWAP1 PUSH2 0xFCF JUMP JUMPDEST SWAP2 POP POP PUSH2 0x44F JUMP JUMPDEST POP DUP3 ISZERO PUSH2 0x7B1 JUMPI PUSH1 0x0 DUP3 PUSH1 0x1 PUSH1 0x1 PUSH1 0xA0 SHL SUB AND DUP3 PUSH1 0x40 MLOAD PUSH1 0x0 PUSH1 0x40 MLOAD DUP1 DUP4 SUB DUP2 DUP6 DUP8 GAS CALL SWAP3 POP POP POP RETURNDATASIZE DUP1 PUSH1 0x0 DUP2 EQ PUSH2 0x760 JUMPI PUSH1 0x40 MLOAD SWAP2 POP PUSH1 0x1F NOT PUSH1 0x3F RETURNDATASIZE ADD AND DUP3 ADD PUSH1 0x40 MSTORE RETURNDATASIZE DUP3 MSTORE RETURNDATASIZE PUSH1 0x0 PUSH1 0x20 DUP5 ADD RETURNDATACOPY PUSH2 0x765 JUMP JUMPDEST PUSH1 0x60 SWAP2 POP JUMPDEST POP POP SWAP1 POP DUP1 PUSH2 0x7AF JUMPI PUSH1 0x40 MLOAD PUSH3 0x461BCD PUSH1 0xE5 SHL DUP2 MSTORE PUSH1 0x20 PUSH1 0x4 DUP3 ADD MSTORE PUSH1 0x16 PUSH1 0x24 DUP3 ADD MSTORE PUSH22 0x15DA5B9B995C881D1C985B9CD9995C8819985A5B1959 PUSH1 0x52 SHL PUSH1 0x44 DUP3 ADD MSTORE PUSH1 0x64 ADD PUSH2 0x2EF JUMP JUMPDEST POP JUMPDEST CALLER PUSH32 0x193C33EC72695019BB235376E1047B07F5D0A70E5A1C8892CEE5BEE0AF48D169 DUP6 PUSH2 0x7E5 DUP2 PUSH7 0x8E1BC9BF04000 PUSH2 0xF62 JUMP JUMPDEST PUSH1 0x2 SLOAD PUSH1 0x40 DUP1 MLOAD SWAP4 DUP5 MSTORE PUSH1 0x20 DUP5 ADD SWAP3 SWAP1 SWAP3 MSTORE SWAP1 DUP3 ADD MSTORE PUSH1 0x60 ADD PUSH1 0x40 MLOAD DUP1 SWAP2 SUB SWAP1 LOG2 PUSH1 0x2 SLOAD PUSH1 0x40 DUP1 MLOAD PUSH7 0x8E1BC9BF04000 DUP2 MSTORE PUSH1 0x20 DUP2 ADD SWAP3 SWAP1 SWAP3 MSTORE DUP5 ISZERO ISZERO SWAP1 DUP3 ADD MSTORE CALLER SWAP1 PUSH32 0x5AC4CC4A151D8CE2D7503BFBDAC383F6409F30E99F6B144E5C96EF2EB29CDD6C SWAP1 PUSH1 0x60 ADD PUSH1 0x40 MLOAD DUP1 SWAP2 SUB SWAP1 LOG2 POP POP POP PUSH2 0x861 PUSH1 0x1 DUP1 SSTORE JUMP JUMPDEST POP JUMP JUMPDEST PUSH2 0x86C PUSH2 0xA36 JUMP JUMPDEST PUSH2 0x876 PUSH1 0x0 PUSH2 0xB4F JUMP JUMPDEST JUMP JUMPDEST PUSH2 0x880 PUSH2 0xA36 JUMP JUMPDEST PUSH1 0x0 DUP2 GT PUSH2 0x8DA JUMPI PUSH1 0x40 MLOAD PUSH3 0x461BCD PUSH1 0xE5 SHL DUP2 MSTORE PUSH1 0x20 PUSH1 0x4 DUP3 ADD MSTORE PUSH1 0x21 PUSH1 0x24 DUP3 ADD MSTORE PUSH32 0x57696E206368616E6365206D7573742062652067726561746572207468616E20 PUSH1 0x44 DUP3 ADD MSTORE PUSH1 0x3 PUSH1 0xFC SHL PUSH1 0x64 DUP3 ADD MSTORE PUSH1 0x84 ADD PUSH2 0x2EF JUMP JUMPDEST PUSH1 0x3 SSTORE JUMP JUMPDEST PUSH2 0x8E7 PUSH2 0xA36 JUMP JUMPDEST PUSH1 0x1 PUSH1 0x1 PUSH1 0xA0 SHL SUB DUP2 AND PUSH2 0x92F JUMPI PUSH1 0x40 MLOAD PUSH3 0x461BCD PUSH1 0xE5 SHL DUP2 MSTORE PUSH1 0x20 PUSH1 0x4 DUP3 ADD MSTORE PUSH1 0xF PUSH1 0x24 DUP3 ADD MSTORE PUSH15 0x496E76616C69642061646472657373 PUSH1 0x88 SHL PUSH1 0x44 DUP3 ADD MSTORE PUSH1 0x64 ADD PUSH2 0x2EF JUMP JUMPDEST PUSH1 0x4 DUP1 SLOAD PUSH1 0x1 PUSH1 0x1 PUSH1 0xA0 SHL SUB NOT AND PUSH1 0x1 PUSH1 0x1 PUSH1 0xA0 SHL SUB SWAP3 SWAP1 SWAP3 AND SWAP2 SWAP1 SWAP2 OR SWAP1 SSTORE JUMP JUMPDEST PUSH2 0x959 PUSH2 0xA90 JUMP JUMPDEST PUSH7 0x8E1BC9BF04000 CALLVALUE EQ PUSH2 0x9AF JUMPI PUSH1 0x40 MLOAD PUSH3 0x461BCD PUSH1 0xE5 SHL DUP2 MSTORE PUSH1 0x20 PUSH1 0x4 DUP3 ADD MSTORE PUSH1 0x1C PUSH1 0x24 DUP3 ADD MSTORE PUSH32 0x4D7573742073656E642065786163746C7920302E303032352045544800000000 PUSH1 0x44 DUP3 ADD MSTORE PUSH1 0x64 ADD PUSH2 0x2EF JUMP JUMPDEST PUSH2 0x9B7 PUSH2 0xB9F JUMP JUMPDEST PUSH2 0x876 PUSH1 0x1 DUP1 SSTORE JUMP JUMPDEST PUSH2 0x9C8 PUSH2 0xA36 JUMP JUMPDEST PUSH1 0x1 PUSH1 0x1 PUSH1 0xA0 SHL SUB DUP2 AND PUSH2 0xA2D JUMPI PUSH1 0x40 MLOAD PUSH3 0x461BCD PUSH1 0xE5 SHL DUP2 MSTORE PUSH1 0x20 PUSH1 0x4 DUP3 ADD MSTORE PUSH1 0x26 PUSH1 0x24 DUP3 ADD MSTORE PUSH32 0x4F776E61626C653A206E6577206F776E657220697320746865207A65726F2061 PUSH1 0x44 DUP3 ADD MSTORE PUSH6 0x646472657373 PUSH1 0xD0 SHL PUSH1 0x64 DUP3 ADD MSTORE PUSH1 0x84 ADD PUSH2 0x2EF JUMP JUMPDEST PUSH2 0x861 DUP2 PUSH2 0xB4F JUMP JUMPDEST PUSH1 0x0 SLOAD PUSH1 0x1 PUSH1 0x1 PUSH1 0xA0 SHL SUB AND CALLER EQ PUSH2 0x876 JUMPI PUSH1 0x40 MLOAD PUSH3 0x461BCD PUSH1 0xE5 SHL DUP2 MSTORE PUSH1 0x20 PUSH1 0x4 DUP3 ADD DUP2 SWAP1 MSTORE PUSH1 0x24 DUP3 ADD MSTORE PUSH32 0x4F776E61626C653A2063616C6C6572206973206E6F7420746865206F776E6572 PUSH1 0x44 DUP3 ADD MSTORE PUSH1 0x64 ADD PUSH2 0x2EF JUMP JUMPDEST PUSH1 0x2 PUSH1 0x1 SLOAD SUB PUSH2 0xAE2 JUMPI PUSH1 0x40 MLOAD PUSH3 0x461BCD PUSH1 0xE5 SHL DUP2 MSTORE PUSH1 0x20 PUSH1 0x4 DUP3 ADD MSTORE PUSH1 0x1F PUSH1 0x24 DUP3 ADD MSTORE PUSH32 0x5265656E7472616E637947756172643A207265656E7472616E742063616C6C00 PUSH1 0x44 DUP3 ADD MSTORE PUSH1 0x64 ADD PUSH2 0x2EF JUMP JUMPDEST PUSH1 0x2 PUSH1 0x1 SSTORE JUMP JUMPDEST PUSH1 0x0 DUP1 PUSH1 0x3 SLOAD PREVRANDAO TIMESTAMP CALLER GAS PUSH1 0x40 DUP1 MLOAD PUSH1 0x20 DUP2 ADD SWAP6 SWAP1 SWAP6 MSTORE DUP5 ADD SWAP3 SWAP1 SWAP3 MSTORE PUSH12 0xFFFFFFFFFFFFFFFFFFFFFFFF NOT PUSH1 0x60 SWAP2 DUP3 SHL AND SWAP1 DUP4 ADD MSTORE PUSH1 0x74 DUP3 ADD MSTORE PUSH1 0x94 ADD PUSH1 0x40 MLOAD PUSH1 0x20 DUP2 DUP4 SUB SUB DUP2 MSTORE SWAP1 PUSH1 0x40 MSTORE DUP1 MLOAD SWAP1 PUSH1 0x20 ADD KECCAK256 PUSH1 0x0 SHR PUSH2 0xB48 SWAP2 SWAP1 PUSH2 0xFE8 JUMP JUMPDEST ISZERO SWAP3 SWAP2 POP POP JUMP JUMPDEST PUSH1 0x0 DUP1 SLOAD PUSH1 0x1 PUSH1 0x1 PUSH1 0xA0 SHL SUB DUP4 DUP2 AND PUSH1 0x1 PUSH1 0x1 PUSH1 0xA0 SHL SUB NOT DUP4 AND DUP2 OR DUP5 SSTORE PUSH1 0x40 MLOAD SWAP2 SWAP1 SWAP3 AND SWAP3 DUP4 SWAP2 PUSH32 0x8BE0079C531659141344CD1FD0A4F28419497F9722A3DAAFE3B4186F6B6457E0 SWAP2 SWAP1 LOG3 POP POP JUMP JUMPDEST PUSH1 0x0 PUSH1 0x64 PUSH2 0xBAE PUSH1 0xA CALLVALUE PUSH2 0xF62 JUMP JUMPDEST PUSH2 0xBB8 SWAP2 SWAP1 PUSH2 0xF95 JUMP JUMPDEST SWAP1 POP PUSH1 0x0 PUSH2 0xBC6 DUP3 CALLVALUE PUSH2 0xFA9 JUMP JUMPDEST PUSH1 0x4 SLOAD PUSH1 0x40 MLOAD SWAP2 SWAP3 POP PUSH1 0x0 SWAP2 PUSH1 0x1 PUSH1 0x1 PUSH1 0xA0 SHL SUB SWAP1 SWAP2 AND SWAP1 DUP5 SWAP1 DUP4 DUP2 DUP2 DUP2 DUP6 DUP8 GAS CALL SWAP3 POP POP POP RETURNDATASIZE DUP1 PUSH1 0x0 DUP2 EQ PUSH2 0xC18 JUMPI PUSH1 0x40 MLOAD SWAP2 POP PUSH1 0x1F NOT PUSH1 0x3F RETURNDATASIZE ADD AND DUP3 ADD PUSH1 0x40 MSTORE RETURNDATASIZE DUP3 MSTORE RETURNDATASIZE PUSH1 0x0 PUSH1 0x20 DUP5 ADD RETURNDATACOPY PUSH2 0xC1D JUMP JUMPDEST PUSH1 0x60 SWAP2 POP JUMPDEST POP POP SWAP1 POP DUP1 PUSH2 0xC64 JUMPI PUSH1 0x40 MLOAD PUSH3 0x461BCD PUSH1 0xE5 SHL DUP2 MSTORE PUSH1 0x20 PUSH1 0x4 DUP3 ADD MSTORE PUSH1 0x13 PUSH1 0x24 DUP3 ADD MSTORE PUSH19 0x119959481D1C985B9CD9995C8819985A5B1959 PUSH1 0x6A SHL PUSH1 0x44 DUP3 ADD MSTORE PUSH1 0x64 ADD PUSH2 0x2EF JUMP JUMPDEST PUSH1 0x4 SLOAD PUSH1 0x40 MLOAD DUP5 DUP2 MSTORE PUSH1 0x1 PUSH1 0x1 PUSH1 0xA0 SHL SUB SWAP1 SWAP2 AND SWAP1 PUSH1 0x0 DUP1 MLOAD PUSH1 0x20 PUSH2 0xFFD DUP4 CODECOPY DUP2 MLOAD SWAP2 MSTORE SWAP1 PUSH1 0x20 ADD PUSH1 0x40 MLOAD DUP1 SWAP2 SUB SWAP1 LOG2 DUP2 PUSH1 0x2 PUSH1 0x0 DUP3 DUP3 SLOAD PUSH2 0xCA6 SWAP2 SWAP1 PUSH2 0xFBC JUMP JUMPDEST SWAP1 SWAP2 SSTORE POP PUSH1 0x0 SWAP1 POP PUSH2 0xCB6 PUSH2 0xAE9 JUMP JUMPDEST SWAP1 POP DUP1 DUP1 ISZERO PUSH2 0xCC7 JUMPI POP PUSH1 0x0 PUSH1 0x2 SLOAD GT JUMPDEST ISZERO PUSH2 0xEB5 JUMPI PUSH1 0x0 PUSH1 0x64 PUSH1 0xA PUSH1 0x2 SLOAD PUSH2 0xCDF SWAP2 SWAP1 PUSH2 0xF62 JUMP JUMPDEST PUSH2 0xCE9 SWAP2 SWAP1 PUSH2 0xF95 JUMP JUMPDEST SWAP1 POP PUSH1 0x0 DUP2 PUSH1 0x2 SLOAD PUSH2 0xCFB SWAP2 SWAP1 PUSH2 0xFA9 JUMP JUMPDEST PUSH1 0x5 DUP1 SLOAD PUSH1 0x1 PUSH1 0x1 PUSH1 0xA0 SHL SUB NOT AND CALLER OR SWAP1 SSTORE PUSH1 0x6 DUP2 SWAP1 SSTORE PUSH1 0x0 PUSH1 0x2 DUP2 SWAP1 SSTORE PUSH1 0x4 SLOAD PUSH1 0x40 MLOAD SWAP3 SWAP4 POP SWAP1 SWAP2 PUSH1 0x1 PUSH1 0x1 PUSH1 0xA0 SHL SUB SWAP1 SWAP2 AND SWAP1 DUP5 SWAP1 DUP4 DUP2 DUP2 DUP2 DUP6 DUP8 GAS CALL SWAP3 POP POP POP RETURNDATASIZE DUP1 PUSH1 0x0 DUP2 EQ PUSH2 0xD6A JUMPI PUSH1 0x40 MLOAD SWAP2 POP PUSH1 0x1F NOT PUSH1 0x3F RETURNDATASIZE ADD AND DUP3 ADD PUSH1 0x40 MSTORE RETURNDATASIZE DUP3 MSTORE RETURNDATASIZE PUSH1 0x0 PUSH1 0x20 DUP5 ADD RETURNDATACOPY PUSH2 0xD6F JUMP JUMPDEST PUSH1 0x60 SWAP2 POP JUMPDEST POP POP SWAP1 POP DUP1 PUSH2 0xDBA JUMPI PUSH1 0x40 MLOAD PUSH3 0x461BCD PUSH1 0xE5 SHL DUP2 MSTORE PUSH1 0x20 PUSH1 0x4 DUP3 ADD MSTORE PUSH1 0x17 PUSH1 0x24 DUP3 ADD MSTORE PUSH23 0x141BDD08199959481D1C985B9CD9995C8819985A5B1959 PUSH1 0x4A SHL PUSH1 0x44 DUP3 ADD MSTORE PUSH1 0x64 ADD PUSH2 0x2EF JUMP JUMPDEST PUSH1 0x4 SLOAD PUSH1 0x40 MLOAD DUP5 DUP2 MSTORE PUSH1 0x1 PUSH1 0x1 PUSH1 0xA0 SHL SUB SWAP1 SWAP2 AND SWAP1 PUSH1 0x0 DUP1 MLOAD PUSH1 0x20 PUSH2 0xFFD DUP4 CODECOPY DUP2 MLOAD SWAP2 MSTORE SWAP1 PUSH1 0x20 ADD PUSH1 0x40 MLOAD DUP1 SWAP2 SUB SWAP1 LOG2 PUSH1 0x40 MLOAD PUSH1 0x0 SWAP1 CALLER SWAP1 DUP5 SWAP1 DUP4 DUP2 DUP2 DUP2 DUP6 DUP8 GAS CALL SWAP3 POP POP POP RETURNDATASIZE DUP1 PUSH1 0x0 DUP2 EQ PUSH2 0xE2C JUMPI PUSH1 0x40 MLOAD SWAP2 POP PUSH1 0x1F NOT PUSH1 0x3F RETURNDATASIZE ADD AND DUP3 ADD PUSH1 0x40 MSTORE RETURNDATASIZE DUP3 MSTORE RETURNDATASIZE PUSH1 0x0 PUSH1 0x20 DUP5 ADD RETURNDATACOPY PUSH2 0xE31 JUMP JUMPDEST PUSH1 0x60 SWAP2 POP JUMPDEST POP POP SWAP1 POP DUP1 PUSH2 0xE7B JUMPI PUSH1 0x40 MLOAD PUSH3 0x461BCD PUSH1 0xE5 SHL DUP2 MSTORE PUSH1 0x20 PUSH1 0x4 DUP3 ADD MSTORE PUSH1 0x16 PUSH1 0x24 DUP3 ADD MSTORE PUSH22 0x15DA5B9B995C881D1C985B9CD9995C8819985A5B1959 PUSH1 0x52 SHL PUSH1 0x44 DUP3 ADD MSTORE PUSH1 0x64 ADD PUSH2 0x2EF JUMP JUMPDEST PUSH1 0x40 MLOAD DUP4 DUP2 MSTORE CALLER SWAP1 PUSH32 0x9C2270628A9B29D30AE96B6C4C14ED646EE134FEBDCE38A5B77F2BDE9CEA2E20 SWAP1 PUSH1 0x20 ADD PUSH1 0x40 MLOAD DUP1 SWAP2 SUB SWAP1 LOG2 POP POP POP POP JUMPDEST PUSH1 0x2 SLOAD PUSH1 0x40 DUP1 MLOAD CALLVALUE DUP2 MSTORE PUSH1 0x20 DUP2 ADD SWAP3 SWAP1 SWAP3 MSTORE DUP3 ISZERO ISZERO SWAP1 DUP3 ADD MSTORE CALLER SWAP1 PUSH32 0x5AC4CC4A151D8CE2D7503BFBDAC383F6409F30E99F6B144E5C96EF2EB29CDD6C SWAP1 PUSH1 0x60 ADD PUSH1 0x40 MLOAD DUP1 SWAP2 SUB SWAP1 LOG2 POP POP POP POP JUMP JUMPDEST PUSH1 0x0 PUSH1 0x20 DUP3 DUP5 SUB SLT ISZERO PUSH2 0xF15 JUMPI PUSH1 0x0 DUP1 REVERT JUMPDEST POP CALLDATALOAD SWAP2 SWAP1 POP JUMP JUMPDEST PUSH1 0x0 PUSH1 0x20 DUP3 DUP5 SUB SLT ISZERO PUSH2 0xF2E JUMPI PUSH1 0x0 DUP1 REVERT JUMPDEST DUP2 CALLDATALOAD PUSH1 0x1 PUSH1 0x1 PUSH1 0xA0 SHL SUB DUP2 AND DUP2 EQ PUSH2 0xF45 JUMPI PUSH1 0x0 DUP1 REVERT JUMPDEST SWAP4 SWAP3 POP POP POP JUMP JUMPDEST PUSH4 0x4E487B71 PUSH1 0xE0 SHL PUSH1 0x0 MSTORE PUSH1 0x11 PUSH1 0x4 MSTORE PUSH1 0x24 PUSH1 0x0 REVERT JUMPDEST DUP1 DUP3 MUL DUP2 ISZERO DUP3 DUP3 DIV DUP5 EQ OR PUSH2 0xF79 JUMPI PUSH2 0xF79 PUSH2 0xF4C JUMP JUMPDEST SWAP3 SWAP2 POP POP JUMP JUMPDEST PUSH4 0x4E487B71 PUSH1 0xE0 SHL PUSH1 0x0 MSTORE PUSH1 0x12 PUSH1 0x4 MSTORE PUSH1 0x24 PUSH1 0x0 REVERT JUMPDEST PUSH1 0x0 DUP3 PUSH2 0xFA4 JUMPI PUSH2 0xFA4 PUSH2 0xF7F JUMP JUMPDEST POP DIV SWAP1 JUMP JUMPDEST DUP2 DUP2 SUB DUP2 DUP2 GT ISZERO PUSH2 0xF79 JUMPI PUSH2 0xF79 PUSH2 0xF4C JUMP JUMPDEST DUP1 DUP3 ADD DUP1 DUP3 GT ISZERO PUSH2 0xF79 JUMPI PUSH2 0xF79 PUSH2 0xF4C JUMP JUMPDEST PUSH1 0x0 PUSH1 0x1 DUP3 ADD PUSH2 0xFE1 JUMPI PUSH2 0xFE1 PUSH2 0xF4C JUMP JUMPDEST POP PUSH1 0x1 ADD SWAP1 JUMP JUMPDEST PUSH1 0x0 DUP3 PUSH2 0xFF7 JUMPI PUSH2 0xFF7 PUSH2 0xF7F JUMP JUMPDEST POP MOD SWAP1 JUMP INVALID PC PUSH26 0x3DF5F4D270351F09EFD433DB93C69432142B69DC7EE38195FC63 DIV PUSH25 0xC79FA2646970667358221220E35A61ED75E48BF59F99686D14 0xD3 SHL CALL 0x29 0xBB PUSH3 0x4EB4C 0xDB 0xE PUSH8 0xA6C02BD4EAC18564 PUSH20 0x6F6C634300081400330000000000000000000000 "},"methodIdentifiers":{"FEE_PERCENTAGE()":"000b46f8","TICKET_PRICE()":"1a95f15f","buyMultipleTickets(uint256)":"20c94be8","buyTicket()":"edca914c","feeCollector()":"c415b95c","getPot()":"403c9fa8","lastWinAmount()":"98ec58fd","lastWinner()":"fe188184","owner()":"8da5cb5b","pot()":"4ba2363a","renounceOwnership()":"715018a6","rescueETH()":"20800a00","transferOwnership(address)":"f2fde38b","updateFeeCollector(address)":"d2c35ce8","updateWinChance(uint256)":"7223f06e","winChance()":"6dbeffbe"}}}}}