{"contracts/RollingRaffle.sol":{"RollingRaffle":{"abi":[{"inputs":[],"stateMutability":"nonpayable","type":"constructor"},{"anonymous":false,"inputs":[{"indexed":true,"internalType":"address","name":"to","type":"address"},{"indexed":false,"internalType":"uint256","name":"amount","type":"uint256"}],"name":"FeeSent","type":"event"},{"anonymous":false,"inputs":[{"indexed":true,"internalType":"address","name":"player","type":"address"},{"indexed":false,"internalType":"uint256","name":"quantity","type":"uint256"},{"indexed":false,"internalType":"uint256","name":"totalAmount","type":"uint256"},{"indexed":false,"internalType":"uint256","name":"pot","type":"uint256"}],"name":"MultipleTicketsBought","type":"event"},{"anonymous":false,"inputs":[{"indexed":true,"internalType":"address","name":"previousOwner","type":"address"},{"indexed":true,"internalType":"address","name":"newOwner","type":"address"}],"name":"OwnershipTransferred","type":"event"},{"anonymous":false,"inputs":[{"indexed":true,"internalType":"address","name":"to","type":"address"},{"indexed":false,"internalType":"uint256","name":"amount","type":"uint256"}],"name":"RefundSent","type":"event"},{"anonymous":false,"inputs":[{"indexed":true,"internalType":"address","name":"player","type":"address"},{"indexed":false,"internalType":"uint256","name":"amount","type":"uint256"},{"indexed":false,"internalType":"uint256","name":"pot","type":"uint256"},{"indexed":false,"internalType":"bool","name":"won","type":"bool"}],"name":"TicketBought","type":"event"},{"anonymous":false,"inputs":[{"indexed":true,"internalType":"address","name":"player","type":"address"},{"indexed":false,"internalType":"uint256","name":"prizeAmount","type":"uint256"}],"name":"Winner","type":"event"},{"inputs":[{"internalType":"uint256","name":"quantity","type":"uint256"}],"name":"buyMultipleTickets","outputs":[],"stateMutability":"payable","type":"function"},{"inputs":[],"name":"buyTicket","outputs":[],"stateMutability":"payable","type":"function"},{"inputs":[],"name":"feeCollector","outputs":[{"internalType":"address","name":"","type":"address"}],"stateMutability":"view","type":"function"},{"inputs":[],"name":"getPot","outputs":[{"internalType":"uint256","name":"","type":"uint256"}],"stateMutability":"view","type":"function"},{"inputs":[],"name":"jackpotFeePercentage","outputs":[{"internalType":"uint256","name":"","type":"uint256"}],"stateMutability":"view","type":"function"},{"inputs":[],"name":"lastWinAmount","outputs":[{"internalType":"uint256","name":"","type":"uint256"}],"stateMutability":"view","type":"function"},{"inputs":[],"name":"lastWinner","outputs":[{"internalType":"address","name":"","type":"address"}],"stateMutability":"view","type":"function"},{"inputs":[],"name":"owner","outputs":[{"internalType":"address","name":"","type":"address"}],"stateMutability":"view","type":"function"},{"inputs":[],"name":"pot","outputs":[{"internalType":"uint256","name":"","type":"uint256"}],"stateMutability":"view","type":"function"},{"inputs":[],"name":"renounceOwnership","outputs":[],"stateMutability":"nonpayable","type":"function"},{"inputs":[],"name":"rescueETH","outputs":[],"stateMutability":"nonpayable","type":"function"},{"inputs":[],"name":"ticketFeePercentage","outputs":[{"internalType":"uint256","name":"","type":"uint256"}],"stateMutability":"view","type":"function"},{"inputs":[],"name":"ticketPrice","outputs":[{"internalType":"uint256","name":"","type":"uint256"}],"stateMutability":"view","type":"function"},{"inputs":[{"internalType":"address","name":"newOwner","type":"address"}],"name":"transferOwnership","outputs":[],"stateMutability":"nonpayable","type":"function"},{"inputs":[{"internalType":"address","name":"_feeCollector","type":"address"}],"name":"updateFeeCollector","outputs":[],"stateMutability":"nonpayable","type":"function"},{"inputs":[{"internalType":"uint256","name":"_jackpotFeePercentage","type":"uint256"}],"name":"updateJackpotFeePercentage","outputs":[],"stateMutability":"nonpayable","type":"function"},{"inputs":[{"internalType":"uint256","name":"_ticketFeePercentage","type":"uint256"}],"name":"updateTicketFeePercentage","outputs":[],"stateMutability":"nonpayable","type":"function"},{"inputs":[{"internalType":"uint256","name":"_ticketPrice","type":"uint256"}],"name":"updateTicketPrice","outputs":[],"stateMutability":"nonpayable","type":"function"},{"inputs":[{"internalType":"uint256","name":"_winChance","type":"uint256"}],"name":"updateWinChance","outputs":[],"stateMutability":"nonpayable","type":"function"},{"inputs":[],"name":"winChance","outputs":[{"internalType":"uint256","name":"","type":"uint256"}],"stateMutability":"view","type":"function"}],"evm":{"bytecode":{"linkReferences":{},"object":"60806040526608e1bc9bf04000600255600a6003556005600455601460065534801561002a57600080fd5b506100343361004f565b60018055600780546001600160a01b0319163317905561009f565b600080546001600160a01b038381166001600160a01b0319831681178455604051919092169283917f8be0079c531659141344cd1fd0a4f28419497f9722a3daafe3b4186f6b6457e09190a35050565b611313806100ae6000396000f3fe60806040526004361061011f5760003560e01c80638da5cb5b116100a0578063d2c35ce811610064578063d2c35ce8146102c1578063edca914c146102e1578063f02137c8146102e9578063f2fde38b14610309578063fe1881841461032957600080fd5b80638da5cb5b14610223578063966e043e1461025557806398ec58fd1461026b578063a267a2db14610281578063c415b95c146102a157600080fd5b80634f7c86e6116100e75780634f7c86e6146101a25780635008dab6146101c25780636dbeffbe146101d8578063715018a6146101ee5780637223f06e1461020357600080fd5b80631209b1f61461012457806320800a001461014d57806320c94be814610164578063403c9fa8146101775780634ba2363a1461018c575b600080fd5b34801561013057600080fd5b5061013a60025481565b6040519081526020015b60405180910390f35b34801561015957600080fd5b50610162610349565b005b6101626101723660046111c4565b610430565b34801561018357600080fd5b5060055461013a565b34801561019857600080fd5b5061013a60055481565b3480156101ae57600080fd5b506101626101bd3660046111c4565b6109ff565b3480156101ce57600080fd5b5061013a60035481565b3480156101e457600080fd5b5061013a60065481565b3480156101fa57600080fd5b50610162610a5d565b34801561020f57600080fd5b5061016261021e3660046111c4565b610a71565b34801561022f57600080fd5b506000546001600160a01b03165b6040516001600160a01b039091168152602001610144565b34801561026157600080fd5b5061013a60045481565b34801561027757600080fd5b5061013a60095481565b34801561028d57600080fd5b5061016261029c3660046111c4565b610ad8565b3480156102ad57600080fd5b5060075461023d906001600160a01b031681565b3480156102cd57600080fd5b506101626102dc3660046111dd565b610b36565b610162610ba8565b3480156102f557600080fd5b506101626103043660046111c4565b610c12565b34801561031557600080fd5b506101626103243660046111dd565b610c7b565b34801561033557600080fd5b5060085461023d906001600160a01b031681565b610351610cf1565b47806103975760405162461bcd60e51b815260206004820152601060248201526f4e6f2045544820746f2072657363756560801b60448201526064015b60405180910390fd5b600080546040516001600160a01b039091169083908381818185875af1925050503d80600081146103e4576040519150601f19603f3d011682016040523d82523d6000602084013e6103e9565b606091505b505090508061042c5760405162461bcd60e51b815260206004820152600f60248201526e151c985b9cd9995c8819985a5b1959608a1b604482015260640161038e565b5050565b610438610d4b565b600081116104885760405162461bcd60e51b815260206004820152601c60248201527f4d75737420627579206174206c65617374206f6e65207469636b657400000000604482015260640161038e565b806002546104969190611223565b34146104e45760405162461bcd60e51b815260206004820181905260248201527f496e636f72726563742045544820616d6f756e7420666f72207469636b657473604482015260640161038e565b60008060008060005b858110156107b357600060646003546002546105099190611223565b6105139190611256565b9050600081600254610525919061126a565b6007546040519192506000916001600160a01b039091169084908381818185875af1925050503d8060008114610577576040519150601f19603f3d011682016040523d82523d6000602084013e61057c565b606091505b50509050806105c35760405162461bcd60e51b8152602060048201526013602482015272119959481d1c985b9cd9995c8819985a5b1959606a1b604482015260640161038e565b6007546040518481526001600160a01b03909116906000805160206112be8339815191529060200160405180910390a28160056000828254610605919061127d565b9091555085905061061581611290565b9550506000610622610da4565b905080801561063357506000600554115b1561079c5760019850339750600060646004546005546106539190611223565b61065d9190611256565b90508060055461066d919061126a565b6007546040519199506000916001600160a01b039091169083908381818185875af1925050503d80600081146106bf576040519150601f19603f3d011682016040523d82523d6000602084013e6106c4565b606091505b505090508061070f5760405162461bcd60e51b8152602060048201526017602482015276141bdd08199959481d1c985b9cd9995c8819985a5b1959604a1b604482015260640161038e565b6007546040518381526001600160a01b03909116906000805160206112be8339815191529060200160405180910390a2600880546001600160a01b0319163390811790915560098a905560006005556040518a81527f9c2270628a9b29d30ae96b6c4c14ed646ee134febdce38a5b77f2bde9cea2e209060200160405180910390a25050505050506107b3565b5050505080806107ab90611290565b9150506104ed565b5060006107c0828761126a565b905080156108a4576000816002546107d89190611223565b604051909150600090339083908381818185875af1925050503d806000811461081d576040519150601f19603f3d011682016040523d82523d6000602084013e610822565b606091505b505090508061086c5760405162461bcd60e51b81526020600482015260166024820152751499599d5b99081d1c985b9cd9995c8819985a5b195960521b604482015260640161038e565b60405182815233907fe309aa15fd2f6bd8a58603632508694071e7d35e967bdbb827926e429b7ef34d9060200160405180910390a250505b8415610948576000846001600160a01b03168460405160006040518083038185875af1925050503d80600081146108f7576040519150601f19603f3d011682016040523d82523d6000602084013e6108fc565b606091505b50509050806109465760405162461bcd60e51b815260206004820152601660248201527515da5b9b995c881d1c985b9cd9995c8819985a5b195960521b604482015260640161038e565b505b336001600160a01b03167f193c33ec72695019bb235376e1047b07f5d0a70e5a1c8892cee5bee0af48d16983846002546109829190611223565b6005546040805193845260208401929092529082015260600160405180910390a26002546005546040805192835260208301919091528615159082015233907f5ac4cc4a151d8ce2d7503bfbdac383f6409f30e99f6b144e5c96ef2eb29cdd6c9060600160405180910390a250505050506109fc60018055565b50565b610a07610cf1565b601e811115610a585760405162461bcd60e51b815260206004820152601c60248201527f5469636b6574206665652063616e6e6f74206578636565642033302500000000604482015260640161038e565b600355565b610a65610cf1565b610a6f6000610e0a565b565b610a79610cf1565b60008111610ad35760405162461bcd60e51b815260206004820152602160248201527f57696e206368616e6365206d7573742062652067726561746572207468616e206044820152600360fc1b606482015260840161038e565b600655565b610ae0610cf1565b601e811115610b315760405162461bcd60e51b815260206004820152601d60248201527f4a61636b706f74206665652063616e6e6f742065786365656420333025000000604482015260640161038e565b600455565b610b3e610cf1565b6001600160a01b038116610b865760405162461bcd60e51b815260206004820152600f60248201526e496e76616c6964206164647265737360881b604482015260640161038e565b600780546001600160a01b0319166001600160a01b0392909216919091179055565b610bb0610d4b565b6002543414610c015760405162461bcd60e51b815260206004820152601c60248201527f4d7573742073656e64206578616374207469636b657420707269636500000000604482015260640161038e565b610c09610e5a565b610a6f60018055565b610c1a610cf1565b60008111610c765760405162461bcd60e51b815260206004820152602360248201527f5469636b6574207072696365206d75737420626520677265617465722074686160448201526206e20360ec1b606482015260840161038e565b600255565b610c83610cf1565b6001600160a01b038116610ce85760405162461bcd60e51b815260206004820152602660248201527f4f776e61626c653a206e6577206f776e657220697320746865207a65726f206160448201526564647265737360d01b606482015260840161038e565b6109fc81610e0a565b6000546001600160a01b03163314610a6f5760405162461bcd60e51b815260206004820181905260248201527f4f776e61626c653a2063616c6c6572206973206e6f7420746865206f776e6572604482015260640161038e565b600260015403610d9d5760405162461bcd60e51b815260206004820152601f60248201527f5265656e7472616e637947756172643a207265656e7472616e742063616c6c00604482015260640161038e565b6002600155565b6000806006544442335a6040805160208101959095528401929092526bffffffffffffffffffffffff19606091821b169083015260748201526094016040516020818303038152906040528051906020012060001c610e0391906112a9565b1592915050565b600080546001600160a01b038381166001600160a01b0319831681178455604051919092169283917f8be0079c531659141344cd1fd0a4f28419497f9722a3daafe3b4186f6b6457e09190a35050565b6000606460035434610e6c9190611223565b610e769190611256565b90506000610e84823461126a565b6007546040519192506000916001600160a01b039091169084908381818185875af1925050503d8060008114610ed6576040519150601f19603f3d011682016040523d82523d6000602084013e610edb565b606091505b5050905080610f225760405162461bcd60e51b8152602060048201526013602482015272119959481d1c985b9cd9995c8819985a5b1959606a1b604482015260640161038e565b6007546040518481526001600160a01b03909116906000805160206112be8339815191529060200160405180910390a28160056000828254610f64919061127d565b9091555060009050610f74610da4565b9050808015610f8557506000600554115b156111765760006064600454600554610f9e9190611223565b610fa89190611256565b9050600081600554610fba919061126a565b6007546040519192506000916001600160a01b039091169084908381818185875af1925050503d806000811461100c576040519150601f19603f3d011682016040523d82523d6000602084013e611011565b606091505b505090508061105c5760405162461bcd60e51b8152602060048201526017602482015276141bdd08199959481d1c985b9cd9995c8819985a5b1959604a1b604482015260640161038e565b6007546040518481526001600160a01b03909116906000805160206112be8339815191529060200160405180910390a2600880546001600160a01b0319163390811790915560098390556000600581905560405190919084908381818185875af1925050503d80600081146110ed576040519150601f19603f3d011682016040523d82523d6000602084013e6110f2565b606091505b505090508061113c5760405162461bcd60e51b815260206004820152601660248201527515da5b9b995c881d1c985b9cd9995c8819985a5b195960521b604482015260640161038e565b60405183815233907f9c2270628a9b29d30ae96b6c4c14ed646ee134febdce38a5b77f2bde9cea2e209060200160405180910390a2505050505b6005546040805134815260208101929092528215159082015233907f5ac4cc4a151d8ce2d7503bfbdac383f6409f30e99f6b144e5c96ef2eb29cdd6c9060600160405180910390a250505050565b6000602082840312156111d657600080fd5b5035919050565b6000602082840312156111ef57600080fd5b81356001600160a01b038116811461120657600080fd5b9392505050565b634e487b7160e01b600052601160045260246000fd5b808202811582820484141761123a5761123a61120d565b92915050565b634e487b7160e01b600052601260045260246000fd5b60008261126557611265611240565b500490565b8181038181111561123a5761123a61120d565b8082018082111561123a5761123a61120d565b6000600182016112a2576112a261120d565b5060010190565b6000826112b8576112b8611240565b50069056fe58793df5f4d270351f09efd433db93c69432142b69dc7ee38195fc630478c79fa26469706673582212200a1d4a2235667935ff421ee3b24e89af608bdf49aba16df8b774b375732c3eb464736f6c63430008140033","opcodes":"PUSH1 0x80 PUSH1 0x40 MSTORE PUSH7 0x8E1BC9BF04000 PUSH1 0x2 SSTORE PUSH1 0xA PUSH1 0x3 SSTORE PUSH1 0x5 PUSH1 0x4 SSTORE PUSH1 0x14 PUSH1 0x6 SSTORE CALLVALUE DUP1 ISZERO PUSH2 0x2A JUMPI PUSH1 0x0 DUP1 REVERT JUMPDEST POP PUSH2 0x34 CALLER PUSH2 0x4F JUMP JUMPDEST PUSH1 0x1 DUP1 SSTORE PUSH1 0x7 DUP1 SLOAD PUSH1 0x1 PUSH1 0x1 PUSH1 0xA0 SHL SUB NOT AND CALLER OR SWAP1 SSTORE PUSH2 0x9F JUMP JUMPDEST PUSH1 0x0 DUP1 SLOAD PUSH1 0x1 PUSH1 0x1 PUSH1 0xA0 SHL SUB DUP4 DUP2 AND PUSH1 0x1 PUSH1 0x1 PUSH1 0xA0 SHL SUB NOT DUP4 AND DUP2 OR DUP5 SSTORE PUSH1 0x40 MLOAD SWAP2 SWAP1 SWAP3 AND SWAP3 DUP4 SWAP2 PUSH32 0x8BE0079C531659141344CD1FD0A4F28419497F9722A3DAAFE3B4186F6B6457E0 SWAP2 SWAP1 LOG3 POP POP JUMP JUMPDEST PUSH2 0x1313 DUP1 PUSH2 0xAE PUSH1 0x0 CODECOPY PUSH1 0x0 RETURN INVALID PUSH1 0x80 PUSH1 0x40 MSTORE PUSH1 0x4 CALLDATASIZE LT PUSH2 0x11F JUMPI PUSH1 0x0 CALLDATALOAD PUSH1 0xE0 SHR DUP1 PUSH4 0x8DA5CB5B GT PUSH2 0xA0 JUMPI DUP1 PUSH4 0xD2C35CE8 GT PUSH2 0x64 JUMPI DUP1 PUSH4 0xD2C35CE8 EQ PUSH2 0x2C1 JUMPI DUP1 PUSH4 0xEDCA914C EQ PUSH2 0x2E1 JUMPI DUP1 PUSH4 0xF02137C8 EQ PUSH2 0x2E9 JUMPI DUP1 PUSH4 0xF2FDE38B EQ PUSH2 0x309 JUMPI DUP1 PUSH4 0xFE188184 EQ PUSH2 0x329 JUMPI PUSH1 0x0 DUP1 REVERT JUMPDEST DUP1 PUSH4 0x8DA5CB5B EQ PUSH2 0x223 JUMPI DUP1 PUSH4 0x966E043E EQ PUSH2 0x255 JUMPI DUP1 PUSH4 0x98EC58FD EQ PUSH2 0x26B JUMPI DUP1 PUSH4 0xA267A2DB EQ PUSH2 0x281 JUMPI DUP1 PUSH4 0xC415B95C EQ PUSH2 0x2A1 JUMPI PUSH1 0x0 DUP1 REVERT JUMPDEST DUP1 PUSH4 0x4F7C86E6 GT PUSH2 0xE7 JUMPI DUP1 PUSH4 0x4F7C86E6 EQ PUSH2 0x1A2 JUMPI DUP1 PUSH4 0x5008DAB6 EQ PUSH2 0x1C2 JUMPI DUP1 PUSH4 0x6DBEFFBE EQ PUSH2 0x1D8 JUMPI DUP1 PUSH4 0x715018A6 EQ PUSH2 0x1EE JUMPI DUP1 PUSH4 0x7223F06E EQ PUSH2 0x203 JUMPI PUSH1 0x0 DUP1 REVERT JUMPDEST DUP1 PUSH4 0x1209B1F6 EQ PUSH2 0x124 JUMPI DUP1 PUSH4 0x20800A00 EQ PUSH2 0x14D JUMPI DUP1 PUSH4 0x20C94BE8 EQ PUSH2 0x164 JUMPI DUP1 PUSH4 0x403C9FA8 EQ PUSH2 0x177 JUMPI DUP1 PUSH4 0x4BA2363A EQ PUSH2 0x18C JUMPI JUMPDEST PUSH1 0x0 DUP1 REVERT JUMPDEST CALLVALUE DUP1 ISZERO PUSH2 0x130 JUMPI PUSH1 0x0 DUP1 REVERT JUMPDEST POP PUSH2 0x13A PUSH1 0x2 SLOAD DUP2 JUMP JUMPDEST PUSH1 0x40 MLOAD SWAP1 DUP2 MSTORE PUSH1 0x20 ADD JUMPDEST PUSH1 0x40 MLOAD DUP1 SWAP2 SUB SWAP1 RETURN JUMPDEST CALLVALUE DUP1 ISZERO PUSH2 0x159 JUMPI PUSH1 0x0 DUP1 REVERT JUMPDEST POP PUSH2 0x162 PUSH2 0x349 JUMP JUMPDEST STOP JUMPDEST PUSH2 0x162 PUSH2 0x172 CALLDATASIZE PUSH1 0x4 PUSH2 0x11C4 JUMP JUMPDEST PUSH2 0x430 JUMP JUMPDEST CALLVALUE DUP1 ISZERO PUSH2 0x183 JUMPI PUSH1 0x0 DUP1 REVERT JUMPDEST POP PUSH1 0x5 SLOAD PUSH2 0x13A JUMP JUMPDEST CALLVALUE DUP1 ISZERO PUSH2 0x198 JUMPI PUSH1 0x0 DUP1 REVERT JUMPDEST POP PUSH2 0x13A PUSH1 0x5 SLOAD DUP2 JUMP JUMPDEST CALLVALUE DUP1 ISZERO PUSH2 0x1AE JUMPI PUSH1 0x0 DUP1 REVERT JUMPDEST POP PUSH2 0x162 PUSH2 0x1BD CALLDATASIZE PUSH1 0x4 PUSH2 0x11C4 JUMP JUMPDEST PUSH2 0x9FF JUMP JUMPDEST CALLVALUE DUP1 ISZERO PUSH2 0x1CE JUMPI PUSH1 0x0 DUP1 REVERT JUMPDEST POP PUSH2 0x13A PUSH1 0x3 SLOAD DUP2 JUMP JUMPDEST CALLVALUE DUP1 ISZERO PUSH2 0x1E4 JUMPI PUSH1 0x0 DUP1 REVERT JUMPDEST POP PUSH2 0x13A PUSH1 0x6 SLOAD DUP2 JUMP JUMPDEST CALLVALUE DUP1 ISZERO PUSH2 0x1FA JUMPI PUSH1 0x0 DUP1 REVERT JUMPDEST POP PUSH2 0x162 PUSH2 0xA5D JUMP JUMPDEST CALLVALUE DUP1 ISZERO PUSH2 0x20F JUMPI PUSH1 0x0 DUP1 REVERT JUMPDEST POP PUSH2 0x162 PUSH2 0x21E CALLDATASIZE PUSH1 0x4 PUSH2 0x11C4 JUMP JUMPDEST PUSH2 0xA71 JUMP JUMPDEST CALLVALUE DUP1 ISZERO PUSH2 0x22F JUMPI PUSH1 0x0 DUP1 REVERT JUMPDEST POP PUSH1 0x0 SLOAD PUSH1 0x1 PUSH1 0x1 PUSH1 0xA0 SHL SUB AND JUMPDEST PUSH1 0x40 MLOAD PUSH1 0x1 PUSH1 0x1 PUSH1 0xA0 SHL SUB SWAP1 SWAP2 AND DUP2 MSTORE PUSH1 0x20 ADD PUSH2 0x144 JUMP JUMPDEST CALLVALUE DUP1 ISZERO PUSH2 0x261 JUMPI PUSH1 0x0 DUP1 REVERT JUMPDEST POP PUSH2 0x13A PUSH1 0x4 SLOAD DUP2 JUMP JUMPDEST CALLVALUE DUP1 ISZERO PUSH2 0x277 JUMPI PUSH1 0x0 DUP1 REVERT JUMPDEST POP PUSH2 0x13A PUSH1 0x9 SLOAD DUP2 JUMP JUMPDEST CALLVALUE DUP1 ISZERO PUSH2 0x28D JUMPI PUSH1 0x0 DUP1 REVERT JUMPDEST POP PUSH2 0x162 PUSH2 0x29C CALLDATASIZE PUSH1 0x4 PUSH2 0x11C4 JUMP JUMPDEST PUSH2 0xAD8 JUMP JUMPDEST CALLVALUE DUP1 ISZERO PUSH2 0x2AD JUMPI PUSH1 0x0 DUP1 REVERT JUMPDEST POP PUSH1 0x7 SLOAD PUSH2 0x23D SWAP1 PUSH1 0x1 PUSH1 0x1 PUSH1 0xA0 SHL SUB AND DUP2 JUMP JUMPDEST CALLVALUE DUP1 ISZERO PUSH2 0x2CD JUMPI PUSH1 0x0 DUP1 REVERT JUMPDEST POP PUSH2 0x162 PUSH2 0x2DC CALLDATASIZE PUSH1 0x4 PUSH2 0x11DD JUMP JUMPDEST PUSH2 0xB36 JUMP JUMPDEST PUSH2 0x162 PUSH2 0xBA8 JUMP JUMPDEST CALLVALUE DUP1 ISZERO PUSH2 0x2F5 JUMPI PUSH1 0x0 DUP1 REVERT JUMPDEST POP PUSH2 0x162 PUSH2 0x304 CALLDATASIZE PUSH1 0x4 PUSH2 0x11C4 JUMP JUMPDEST PUSH2 0xC12 JUMP JUMPDEST CALLVALUE DUP1 ISZERO PUSH2 0x315 JUMPI PUSH1 0x0 DUP1 REVERT JUMPDEST POP PUSH2 0x162 PUSH2 0x324 CALLDATASIZE PUSH1 0x4 PUSH2 0x11DD JUMP JUMPDEST PUSH2 0xC7B JUMP JUMPDEST CALLVALUE DUP1 ISZERO PUSH2 0x335 JUMPI PUSH1 0x0 DUP1 REVERT JUMPDEST POP PUSH1 0x8 SLOAD PUSH2 0x23D SWAP1 PUSH1 0x1 PUSH1 0x1 PUSH1 0xA0 SHL SUB AND DUP2 JUMP JUMPDEST PUSH2 0x351 PUSH2 0xCF1 JUMP JUMPDEST SELFBALANCE DUP1 PUSH2 0x397 JUMPI PUSH1 0x40 MLOAD PUSH3 0x461BCD PUSH1 0xE5 SHL DUP2 MSTORE PUSH1 0x20 PUSH1 0x4 DUP3 ADD MSTORE PUSH1 0x10 PUSH1 0x24 DUP3 ADD MSTORE PUSH16 0x4E6F2045544820746F20726573637565 PUSH1 0x80 SHL PUSH1 0x44 DUP3 ADD MSTORE PUSH1 0x64 ADD JUMPDEST PUSH1 0x40 MLOAD DUP1 SWAP2 SUB SWAP1 REVERT JUMPDEST PUSH1 0x0 DUP1 SLOAD PUSH1 0x40 MLOAD PUSH1 0x1 PUSH1 0x1 PUSH1 0xA0 SHL SUB SWAP1 SWAP2 AND SWAP1 DUP4 SWAP1 DUP4 DUP2 DUP2 DUP2 DUP6 DUP8 GAS CALL SWAP3 POP POP POP RETURNDATASIZE DUP1 PUSH1 0x0 DUP2 EQ PUSH2 0x3E4 JUMPI PUSH1 0x40 MLOAD SWAP2 POP PUSH1 0x1F NOT PUSH1 0x3F RETURNDATASIZE ADD AND DUP3 ADD PUSH1 0x40 MSTORE RETURNDATASIZE DUP3 MSTORE RETURNDATASIZE PUSH1 0x0 PUSH1 0x20 DUP5 ADD RETURNDATACOPY PUSH2 0x3E9 JUMP JUMPDEST PUSH1 0x60 SWAP2 POP JUMPDEST POP POP SWAP1 POP DUP1 PUSH2 0x42C JUMPI PUSH1 0x40 MLOAD PUSH3 0x461BCD PUSH1 0xE5 SHL DUP2 MSTORE PUSH1 0x20 PUSH1 0x4 DUP3 ADD MSTORE PUSH1 0xF PUSH1 0x24 DUP3 ADD MSTORE PUSH15 0x151C985B9CD9995C8819985A5B1959 PUSH1 0x8A SHL PUSH1 0x44 DUP3 ADD MSTORE PUSH1 0x64 ADD PUSH2 0x38E JUMP JUMPDEST POP POP JUMP JUMPDEST PUSH2 0x438 PUSH2 0xD4B JUMP JUMPDEST PUSH1 0x0 DUP2 GT PUSH2 0x488 JUMPI PUSH1 0x40 MLOAD PUSH3 0x461BCD PUSH1 0xE5 SHL DUP2 MSTORE PUSH1 0x20 PUSH1 0x4 DUP3 ADD MSTORE PUSH1 0x1C PUSH1 0x24 DUP3 ADD MSTORE PUSH32 0x4D75737420627579206174206C65617374206F6E65207469636B657400000000 PUSH1 0x44 DUP3 ADD MSTORE PUSH1 0x64 ADD PUSH2 0x38E JUMP JUMPDEST DUP1 PUSH1 0x2 SLOAD PUSH2 0x496 SWAP2 SWAP1 PUSH2 0x1223 JUMP JUMPDEST CALLVALUE EQ PUSH2 0x4E4 JUMPI PUSH1 0x40 MLOAD PUSH3 0x461BCD PUSH1 0xE5 SHL DUP2 MSTORE PUSH1 0x20 PUSH1 0x4 DUP3 ADD DUP2 SWAP1 MSTORE PUSH1 0x24 DUP3 ADD MSTORE PUSH32 0x496E636F72726563742045544820616D6F756E7420666F72207469636B657473 PUSH1 0x44 DUP3 ADD MSTORE PUSH1 0x64 ADD PUSH2 0x38E JUMP JUMPDEST PUSH1 0x0 DUP1 PUSH1 0x0 DUP1 PUSH1 0x0 JUMPDEST DUP6 DUP2 LT ISZERO PUSH2 0x7B3 JUMPI PUSH1 0x0 PUSH1 0x64 PUSH1 0x3 SLOAD PUSH1 0x2 SLOAD PUSH2 0x509 SWAP2 SWAP1 PUSH2 0x1223 JUMP JUMPDEST PUSH2 0x513 SWAP2 SWAP1 PUSH2 0x1256 JUMP JUMPDEST SWAP1 POP PUSH1 0x0 DUP2 PUSH1 0x2 SLOAD PUSH2 0x525 SWAP2 SWAP1 PUSH2 0x126A JUMP JUMPDEST PUSH1 0x7 SLOAD PUSH1 0x40 MLOAD SWAP2 SWAP3 POP PUSH1 0x0 SWAP2 PUSH1 0x1 PUSH1 0x1 PUSH1 0xA0 SHL SUB SWAP1 SWAP2 AND SWAP1 DUP5 SWAP1 DUP4 DUP2 DUP2 DUP2 DUP6 DUP8 GAS CALL SWAP3 POP POP POP RETURNDATASIZE DUP1 PUSH1 0x0 DUP2 EQ PUSH2 0x577 JUMPI PUSH1 0x40 MLOAD SWAP2 POP PUSH1 0x1F NOT PUSH1 0x3F RETURNDATASIZE ADD AND DUP3 ADD PUSH1 0x40 MSTORE RETURNDATASIZE DUP3 MSTORE RETURNDATASIZE PUSH1 0x0 PUSH1 0x20 DUP5 ADD RETURNDATACOPY PUSH2 0x57C JUMP JUMPDEST PUSH1 0x60 SWAP2 POP JUMPDEST POP POP SWAP1 POP DUP1 PUSH2 0x5C3 JUMPI PUSH1 0x40 MLOAD PUSH3 0x461BCD PUSH1 0xE5 SHL DUP2 MSTORE PUSH1 0x20 PUSH1 0x4 DUP3 ADD MSTORE PUSH1 0x13 PUSH1 0x24 DUP3 ADD MSTORE PUSH19 0x119959481D1C985B9CD9995C8819985A5B1959 PUSH1 0x6A SHL PUSH1 0x44 DUP3 ADD MSTORE PUSH1 0x64 ADD PUSH2 0x38E JUMP JUMPDEST PUSH1 0x7 SLOAD PUSH1 0x40 MLOAD DUP5 DUP2 MSTORE PUSH1 0x1 PUSH1 0x1 PUSH1 0xA0 SHL SUB SWAP1 SWAP2 AND SWAP1 PUSH1 0x0 DUP1 MLOAD PUSH1 0x20 PUSH2 0x12BE DUP4 CODECOPY DUP2 MLOAD SWAP2 MSTORE SWAP1 PUSH1 0x20 ADD PUSH1 0x40 MLOAD DUP1 SWAP2 SUB SWAP1 LOG2 DUP2 PUSH1 0x5 PUSH1 0x0 DUP3 DUP3 SLOAD PUSH2 0x605 SWAP2 SWAP1 PUSH2 0x127D JUMP JUMPDEST SWAP1 SWAP2 SSTORE POP DUP6 SWAP1 POP PUSH2 0x615 DUP2 PUSH2 0x1290 JUMP JUMPDEST SWAP6 POP POP PUSH1 0x0 PUSH2 0x622 PUSH2 0xDA4 JUMP JUMPDEST SWAP1 POP DUP1 DUP1 ISZERO PUSH2 0x633 JUMPI POP PUSH1 0x0 PUSH1 0x5 SLOAD GT JUMPDEST ISZERO PUSH2 0x79C JUMPI PUSH1 0x1 SWAP9 POP CALLER SWAP8 POP PUSH1 0x0 PUSH1 0x64 PUSH1 0x4 SLOAD PUSH1 0x5 SLOAD PUSH2 0x653 SWAP2 SWAP1 PUSH2 0x1223 JUMP JUMPDEST PUSH2 0x65D SWAP2 SWAP1 PUSH2 0x1256 JUMP JUMPDEST SWAP1 POP DUP1 PUSH1 0x5 SLOAD PUSH2 0x66D SWAP2 SWAP1 PUSH2 0x126A JUMP JUMPDEST PUSH1 0x7 SLOAD PUSH1 0x40 MLOAD SWAP2 SWAP10 POP PUSH1 0x0 SWAP2 PUSH1 0x1 PUSH1 0x1 PUSH1 0xA0 SHL SUB SWAP1 SWAP2 AND SWAP1 DUP4 SWAP1 DUP4 DUP2 DUP2 DUP2 DUP6 DUP8 GAS CALL SWAP3 POP POP POP RETURNDATASIZE DUP1 PUSH1 0x0 DUP2 EQ PUSH2 0x6BF JUMPI PUSH1 0x40 MLOAD SWAP2 POP PUSH1 0x1F NOT PUSH1 0x3F RETURNDATASIZE ADD AND DUP3 ADD PUSH1 0x40 MSTORE RETURNDATASIZE DUP3 MSTORE RETURNDATASIZE PUSH1 0x0 PUSH1 0x20 DUP5 ADD RETURNDATACOPY PUSH2 0x6C4 JUMP JUMPDEST PUSH1 0x60 SWAP2 POP JUMPDEST POP POP SWAP1 POP DUP1 PUSH2 0x70F JUMPI PUSH1 0x40 MLOAD PUSH3 0x461BCD PUSH1 0xE5 SHL DUP2 MSTORE PUSH1 0x20 PUSH1 0x4 DUP3 ADD MSTORE PUSH1 0x17 PUSH1 0x24 DUP3 ADD MSTORE PUSH23 0x141BDD08199959481D1C985B9CD9995C8819985A5B1959 PUSH1 0x4A SHL PUSH1 0x44 DUP3 ADD MSTORE PUSH1 0x64 ADD PUSH2 0x38E JUMP JUMPDEST PUSH1 0x7 SLOAD PUSH1 0x40 MLOAD DUP4 DUP2 MSTORE PUSH1 0x1 PUSH1 0x1 PUSH1 0xA0 SHL SUB SWAP1 SWAP2 AND SWAP1 PUSH1 0x0 DUP1 MLOAD PUSH1 0x20 PUSH2 0x12BE DUP4 CODECOPY DUP2 MLOAD SWAP2 MSTORE SWAP1 PUSH1 0x20 ADD PUSH1 0x40 MLOAD DUP1 SWAP2 SUB SWAP1 LOG2 PUSH1 0x8 DUP1 SLOAD PUSH1 0x1 PUSH1 0x1 PUSH1 0xA0 SHL SUB NOT AND CALLER SWAP1 DUP2 OR SWAP1 SWAP2 SSTORE PUSH1 0x9 DUP11 SWAP1 SSTORE PUSH1 0x0 PUSH1 0x5 SSTORE PUSH1 0x40 MLOAD DUP11 DUP2 MSTORE PUSH32 0x9C2270628A9B29D30AE96B6C4C14ED646EE134FEBDCE38A5B77F2BDE9CEA2E20 SWAP1 PUSH1 0x20 ADD PUSH1 0x40 MLOAD DUP1 SWAP2 SUB SWAP1 LOG2 POP POP POP POP POP POP PUSH2 0x7B3 JUMP JUMPDEST POP POP POP POP DUP1 DUP1 PUSH2 0x7AB SWAP1 PUSH2 0x1290 JUMP JUMPDEST SWAP2 POP POP PUSH2 0x4ED JUMP JUMPDEST POP PUSH1 0x0 PUSH2 0x7C0 DUP3 DUP8 PUSH2 0x126A JUMP JUMPDEST SWAP1 POP DUP1 ISZERO PUSH2 0x8A4 JUMPI PUSH1 0x0 DUP2 PUSH1 0x2 SLOAD PUSH2 0x7D8 SWAP2 SWAP1 PUSH2 0x1223 JUMP JUMPDEST PUSH1 0x40 MLOAD SWAP1 SWAP2 POP PUSH1 0x0 SWAP1 CALLER SWAP1 DUP4 SWAP1 DUP4 DUP2 DUP2 DUP2 DUP6 DUP8 GAS CALL SWAP3 POP POP POP RETURNDATASIZE DUP1 PUSH1 0x0 DUP2 EQ PUSH2 0x81D JUMPI PUSH1 0x40 MLOAD SWAP2 POP PUSH1 0x1F NOT PUSH1 0x3F RETURNDATASIZE ADD AND DUP3 ADD PUSH1 0x40 MSTORE RETURNDATASIZE DUP3 MSTORE RETURNDATASIZE PUSH1 0x0 PUSH1 0x20 DUP5 ADD RETURNDATACOPY PUSH2 0x822 JUMP JUMPDEST PUSH1 0x60 SWAP2 POP JUMPDEST POP POP SWAP1 POP DUP1 PUSH2 0x86C JUMPI PUSH1 0x40 MLOAD PUSH3 0x461BCD PUSH1 0xE5 SHL DUP2 MSTORE PUSH1 0x20 PUSH1 0x4 DUP3 ADD MSTORE PUSH1 0x16 PUSH1 0x24 DUP3 ADD MSTORE PUSH22 0x1499599D5B99081D1C985B9CD9995C8819985A5B1959 PUSH1 0x52 SHL PUSH1 0x44 DUP3 ADD MSTORE PUSH1 0x64 ADD PUSH2 0x38E JUMP JUMPDEST PUSH1 0x40 MLOAD DUP3 DUP2 MSTORE CALLER SWAP1 PUSH32 0xE309AA15FD2F6BD8A58603632508694071E7D35E967BDBB827926E429B7EF34D SWAP1 PUSH1 0x20 ADD PUSH1 0x40 MLOAD DUP1 SWAP2 SUB SWAP1 LOG2 POP POP JUMPDEST DUP5 ISZERO PUSH2 0x948 JUMPI PUSH1 0x0 DUP5 PUSH1 0x1 PUSH1 0x1 PUSH1 0xA0 SHL SUB AND DUP5 PUSH1 0x40 MLOAD PUSH1 0x0 PUSH1 0x40 MLOAD DUP1 DUP4 SUB DUP2 DUP6 DUP8 GAS CALL SWAP3 POP POP POP RETURNDATASIZE DUP1 PUSH1 0x0 DUP2 EQ PUSH2 0x8F7 JUMPI PUSH1 0x40 MLOAD SWAP2 POP PUSH1 0x1F NOT PUSH1 0x3F RETURNDATASIZE ADD AND DUP3 ADD PUSH1 0x40 MSTORE RETURNDATASIZE DUP3 MSTORE RETURNDATASIZE PUSH1 0x0 PUSH1 0x20 DUP5 ADD RETURNDATACOPY PUSH2 0x8FC JUMP JUMPDEST PUSH1 0x60 SWAP2 POP JUMPDEST POP POP SWAP1 POP DUP1 PUSH2 0x946 JUMPI PUSH1 0x40 MLOAD PUSH3 0x461BCD PUSH1 0xE5 SHL DUP2 MSTORE PUSH1 0x20 PUSH1 0x4 DUP3 ADD MSTORE PUSH1 0x16 PUSH1 0x24 DUP3 ADD MSTORE PUSH22 0x15DA5B9B995C881D1C985B9CD9995C8819985A5B1959 PUSH1 0x52 SHL PUSH1 0x44 DUP3 ADD MSTORE PUSH1 0x64 ADD PUSH2 0x38E JUMP JUMPDEST POP JUMPDEST CALLER PUSH1 0x1 PUSH1 0x1 PUSH1 0xA0 SHL SUB AND PUSH32 0x193C33EC72695019BB235376E1047B07F5D0A70E5A1C8892CEE5BEE0AF48D169 DUP4 DUP5 PUSH1 0x2 SLOAD PUSH2 0x982 SWAP2 SWAP1 PUSH2 0x1223 JUMP JUMPDEST PUSH1 0x5 SLOAD PUSH1 0x40 DUP1 MLOAD SWAP4 DUP5 MSTORE PUSH1 0x20 DUP5 ADD SWAP3 SWAP1 SWAP3 MSTORE SWAP1 DUP3 ADD MSTORE PUSH1 0x60 ADD PUSH1 0x40 MLOAD DUP1 SWAP2 SUB SWAP1 LOG2 PUSH1 0x2 SLOAD PUSH1 0x5 SLOAD PUSH1 0x40 DUP1 MLOAD SWAP3 DUP4 MSTORE PUSH1 0x20 DUP4 ADD SWAP2 SWAP1 SWAP2 MSTORE DUP7 ISZERO ISZERO SWAP1 DUP3 ADD MSTORE CALLER SWAP1 PUSH32 0x5AC4CC4A151D8CE2D7503BFBDAC383F6409F30E99F6B144E5C96EF2EB29CDD6C SWAP1 PUSH1 0x60 ADD PUSH1 0x40 MLOAD DUP1 SWAP2 SUB SWAP1 LOG2 POP POP POP POP POP PUSH2 0x9FC PUSH1 0x1 DUP1 SSTORE JUMP JUMPDEST POP JUMP JUMPDEST PUSH2 0xA07 PUSH2 0xCF1 JUMP JUMPDEST PUSH1 0x1E DUP2 GT ISZERO PUSH2 0xA58 JUMPI PUSH1 0x40 MLOAD PUSH3 0x461BCD PUSH1 0xE5 SHL DUP2 MSTORE PUSH1 0x20 PUSH1 0x4 DUP3 ADD MSTORE PUSH1 0x1C PUSH1 0x24 DUP3 ADD MSTORE PUSH32 0x5469636B6574206665652063616E6E6F74206578636565642033302500000000 PUSH1 0x44 DUP3 ADD MSTORE PUSH1 0x64 ADD PUSH2 0x38E JUMP JUMPDEST PUSH1 0x3 SSTORE JUMP JUMPDEST PUSH2 0xA65 PUSH2 0xCF1 JUMP JUMPDEST PUSH2 0xA6F PUSH1 0x0 PUSH2 0xE0A JUMP JUMPDEST JUMP JUMPDEST PUSH2 0xA79 PUSH2 0xCF1 JUMP JUMPDEST PUSH1 0x0 DUP2 GT PUSH2 0xAD3 JUMPI PUSH1 0x40 MLOAD PUSH3 0x461BCD PUSH1 0xE5 SHL DUP2 MSTORE PUSH1 0x20 PUSH1 0x4 DUP3 ADD MSTORE PUSH1 0x21 PUSH1 0x24 DUP3 ADD MSTORE PUSH32 0x57696E206368616E6365206D7573742062652067726561746572207468616E20 PUSH1 0x44 DUP3 ADD MSTORE PUSH1 0x3 PUSH1 0xFC SHL PUSH1 0x64 DUP3 ADD MSTORE PUSH1 0x84 ADD PUSH2 0x38E JUMP JUMPDEST PUSH1 0x6 SSTORE JUMP JUMPDEST PUSH2 0xAE0 PUSH2 0xCF1 JUMP JUMPDEST PUSH1 0x1E DUP2 GT ISZERO PUSH2 0xB31 JUMPI PUSH1 0x40 MLOAD PUSH3 0x461BCD PUSH1 0xE5 SHL DUP2 MSTORE PUSH1 0x20 PUSH1 0x4 DUP3 ADD MSTORE PUSH1 0x1D PUSH1 0x24 DUP3 ADD MSTORE PUSH32 0x4A61636B706F74206665652063616E6E6F742065786365656420333025000000 PUSH1 0x44 DUP3 ADD MSTORE PUSH1 0x64 ADD PUSH2 0x38E JUMP JUMPDEST PUSH1 0x4 SSTORE JUMP JUMPDEST PUSH2 0xB3E PUSH2 0xCF1 JUMP JUMPDEST PUSH1 0x1 PUSH1 0x1 PUSH1 0xA0 SHL SUB DUP2 AND PUSH2 0xB86 JUMPI PUSH1 0x40 MLOAD PUSH3 0x461BCD PUSH1 0xE5 SHL DUP2 MSTORE PUSH1 0x20 PUSH1 0x4 DUP3 ADD MSTORE PUSH1 0xF PUSH1 0x24 DUP3 ADD MSTORE PUSH15 0x496E76616C69642061646472657373 PUSH1 0x88 SHL PUSH1 0x44 DUP3 ADD MSTORE PUSH1 0x64 ADD PUSH2 0x38E JUMP JUMPDEST PUSH1 0x7 DUP1 SLOAD PUSH1 0x1 PUSH1 0x1 PUSH1 0xA0 SHL SUB NOT AND PUSH1 0x1 PUSH1 0x1 PUSH1 0xA0 SHL SUB SWAP3 SWAP1 SWAP3 AND SWAP2 SWAP1 SWAP2 OR SWAP1 SSTORE JUMP JUMPDEST PUSH2 0xBB0 PUSH2 0xD4B JUMP JUMPDEST PUSH1 0x2 SLOAD CALLVALUE EQ PUSH2 0xC01 JUMPI PUSH1 0x40 MLOAD PUSH3 0x461BCD PUSH1 0xE5 SHL DUP2 MSTORE PUSH1 0x20 PUSH1 0x4 DUP3 ADD MSTORE PUSH1 0x1C PUSH1 0x24 DUP3 ADD MSTORE PUSH32 0x4D7573742073656E64206578616374207469636B657420707269636500000000 PUSH1 0x44 DUP3 ADD MSTORE PUSH1 0x64 ADD PUSH2 0x38E JUMP JUMPDEST PUSH2 0xC09 PUSH2 0xE5A JUMP JUMPDEST PUSH2 0xA6F PUSH1 0x1 DUP1 SSTORE JUMP JUMPDEST PUSH2 0xC1A PUSH2 0xCF1 JUMP JUMPDEST PUSH1 0x0 DUP2 GT PUSH2 0xC76 JUMPI PUSH1 0x40 MLOAD PUSH3 0x461BCD PUSH1 0xE5 SHL DUP2 MSTORE PUSH1 0x20 PUSH1 0x4 DUP3 ADD MSTORE PUSH1 0x23 PUSH1 0x24 DUP3 ADD MSTORE PUSH32 0x5469636B6574207072696365206D757374206265206772656174657220746861 PUSH1 0x44 DUP3 ADD MSTORE PUSH3 0x6E203 PUSH1 0xEC SHL PUSH1 0x64 DUP3 ADD MSTORE PUSH1 0x84 ADD PUSH2 0x38E JUMP JUMPDEST PUSH1 0x2 SSTORE JUMP JUMPDEST PUSH2 0xC83 PUSH2 0xCF1 JUMP JUMPDEST PUSH1 0x1 PUSH1 0x1 PUSH1 0xA0 SHL SUB DUP2 AND PUSH2 0xCE8 JUMPI PUSH1 0x40 MLOAD PUSH3 0x461BCD PUSH1 0xE5 SHL DUP2 MSTORE PUSH1 0x20 PUSH1 0x4 DUP3 ADD MSTORE PUSH1 0x26 PUSH1 0x24 DUP3 ADD MSTORE PUSH32 0x4F776E61626C653A206E6577206F776E657220697320746865207A65726F2061 PUSH1 0x44 DUP3 ADD MSTORE PUSH6 0x646472657373 PUSH1 0xD0 SHL PUSH1 0x64 DUP3 ADD MSTORE PUSH1 0x84 ADD PUSH2 0x38E JUMP JUMPDEST PUSH2 0x9FC DUP2 PUSH2 0xE0A JUMP JUMPDEST PUSH1 0x0 SLOAD PUSH1 0x1 PUSH1 0x1 PUSH1 0xA0 SHL SUB AND CALLER EQ PUSH2 0xA6F JUMPI PUSH1 0x40 MLOAD PUSH3 0x461BCD PUSH1 0xE5 SHL DUP2 MSTORE PUSH1 0x20 PUSH1 0x4 DUP3 ADD DUP2 SWAP1 MSTORE PUSH1 0x24 DUP3 ADD MSTORE PUSH32 0x4F776E61626C653A2063616C6C6572206973206E6F7420746865206F776E6572 PUSH1 0x44 DUP3 ADD MSTORE PUSH1 0x64 ADD PUSH2 0x38E JUMP JUMPDEST PUSH1 0x2 PUSH1 0x1 SLOAD SUB PUSH2 0xD9D JUMPI PUSH1 0x40 MLOAD PUSH3 0x461BCD PUSH1 0xE5 SHL DUP2 MSTORE PUSH1 0x20 PUSH1 0x4 DUP3 ADD MSTORE PUSH1 0x1F PUSH1 0x24 DUP3 ADD MSTORE PUSH32 0x5265656E7472616E637947756172643A207265656E7472616E742063616C6C00 PUSH1 0x44 DUP3 ADD MSTORE PUSH1 0x64 ADD PUSH2 0x38E JUMP JUMPDEST PUSH1 0x2 PUSH1 0x1 SSTORE JUMP JUMPDEST PUSH1 0x0 DUP1 PUSH1 0x6 SLOAD PREVRANDAO TIMESTAMP CALLER GAS PUSH1 0x40 DUP1 MLOAD PUSH1 0x20 DUP2 ADD SWAP6 SWAP1 SWAP6 MSTORE DUP5 ADD SWAP3 SWAP1 SWAP3 MSTORE PUSH12 0xFFFFFFFFFFFFFFFFFFFFFFFF NOT PUSH1 0x60 SWAP2 DUP3 SHL AND SWAP1 DUP4 ADD MSTORE PUSH1 0x74 DUP3 ADD MSTORE PUSH1 0x94 ADD PUSH1 0x40 MLOAD PUSH1 0x20 DUP2 DUP4 SUB SUB DUP2 MSTORE SWAP1 PUSH1 0x40 MSTORE DUP1 MLOAD SWAP1 PUSH1 0x20 ADD KECCAK256 PUSH1 0x0 SHR PUSH2 0xE03 SWAP2 SWAP1 PUSH2 0x12A9 JUMP JUMPDEST ISZERO SWAP3 SWAP2 POP POP JUMP JUMPDEST PUSH1 0x0 DUP1 SLOAD PUSH1 0x1 PUSH1 0x1 PUSH1 0xA0 SHL SUB DUP4 DUP2 AND PUSH1 0x1 PUSH1 0x1 PUSH1 0xA0 SHL SUB NOT DUP4 AND DUP2 OR DUP5 SSTORE PUSH1 0x40 MLOAD SWAP2 SWAP1 SWAP3 AND SWAP3 DUP4 SWAP2 PUSH32 0x8BE0079C531659141344CD1FD0A4F28419497F9722A3DAAFE3B4186F6B6457E0 SWAP2 SWAP1 LOG3 POP POP JUMP JUMPDEST PUSH1 0x0 PUSH1 0x64 PUSH1 0x3 SLOAD CALLVALUE PUSH2 0xE6C SWAP2 SWAP1 PUSH2 0x1223 JUMP JUMPDEST PUSH2 0xE76 SWAP2 SWAP1 PUSH2 0x1256 JUMP JUMPDEST SWAP1 POP PUSH1 0x0 PUSH2 0xE84 DUP3 CALLVALUE PUSH2 0x126A JUMP JUMPDEST PUSH1 0x7 SLOAD PUSH1 0x40 MLOAD SWAP2 SWAP3 POP PUSH1 0x0 SWAP2 PUSH1 0x1 PUSH1 0x1 PUSH1 0xA0 SHL SUB SWAP1 SWAP2 AND SWAP1 DUP5 SWAP1 DUP4 DUP2 DUP2 DUP2 DUP6 DUP8 GAS CALL SWAP3 POP POP POP RETURNDATASIZE DUP1 PUSH1 0x0 DUP2 EQ PUSH2 0xED6 JUMPI PUSH1 0x40 MLOAD SWAP2 POP PUSH1 0x1F NOT PUSH1 0x3F RETURNDATASIZE ADD AND DUP3 ADD PUSH1 0x40 MSTORE RETURNDATASIZE DUP3 MSTORE RETURNDATASIZE PUSH1 0x0 PUSH1 0x20 DUP5 ADD RETURNDATACOPY PUSH2 0xEDB JUMP JUMPDEST PUSH1 0x60 SWAP2 POP JUMPDEST POP POP SWAP1 POP DUP1 PUSH2 0xF22 JUMPI PUSH1 0x40 MLOAD PUSH3 0x461BCD PUSH1 0xE5 SHL DUP2 MSTORE PUSH1 0x20 PUSH1 0x4 DUP3 ADD MSTORE PUSH1 0x13 PUSH1 0x24 DUP3 ADD MSTORE PUSH19 0x119959481D1C985B9CD9995C8819985A5B1959 PUSH1 0x6A SHL PUSH1 0x44 DUP3 ADD MSTORE PUSH1 0x64 ADD PUSH2 0x38E JUMP JUMPDEST PUSH1 0x7 SLOAD PUSH1 0x40 MLOAD DUP5 DUP2 MSTORE PUSH1 0x1 PUSH1 0x1 PUSH1 0xA0 SHL SUB SWAP1 SWAP2 AND SWAP1 PUSH1 0x0 DUP1 MLOAD PUSH1 0x20 PUSH2 0x12BE DUP4 CODECOPY DUP2 MLOAD SWAP2 MSTORE SWAP1 PUSH1 0x20 ADD PUSH1 0x40 MLOAD DUP1 SWAP2 SUB SWAP1 LOG2 DUP2 PUSH1 0x5 PUSH1 0x0 DUP3 DUP3 SLOAD PUSH2 0xF64 SWAP2 SWAP1 PUSH2 0x127D JUMP JUMPDEST SWAP1 SWAP2 SSTORE POP PUSH1 0x0 SWAP1 POP PUSH2 0xF74 PUSH2 0xDA4 JUMP JUMPDEST SWAP1 POP DUP1 DUP1 ISZERO PUSH2 0xF85 JUMPI POP PUSH1 0x0 PUSH1 0x5 SLOAD GT JUMPDEST ISZERO PUSH2 0x1176 JUMPI PUSH1 0x0 PUSH1 0x64 PUSH1 0x4 SLOAD PUSH1 0x5 SLOAD PUSH2 0xF9E SWAP2 SWAP1 PUSH2 0x1223 JUMP JUMPDEST PUSH2 0xFA8 SWAP2 SWAP1 PUSH2 0x1256 JUMP JUMPDEST SWAP1 POP PUSH1 0x0 DUP2 PUSH1 0x5 SLOAD PUSH2 0xFBA SWAP2 SWAP1 PUSH2 0x126A JUMP JUMPDEST PUSH1 0x7 SLOAD PUSH1 0x40 MLOAD SWAP2 SWAP3 POP PUSH1 0x0 SWAP2 PUSH1 0x1 PUSH1 0x1 PUSH1 0xA0 SHL SUB SWAP1 SWAP2 AND SWAP1 DUP5 SWAP1 DUP4 DUP2 DUP2 DUP2 DUP6 DUP8 GAS CALL SWAP3 POP POP POP RETURNDATASIZE DUP1 PUSH1 0x0 DUP2 EQ PUSH2 0x100C JUMPI PUSH1 0x40 MLOAD SWAP2 POP PUSH1 0x1F NOT PUSH1 0x3F RETURNDATASIZE ADD AND DUP3 ADD PUSH1 0x40 MSTORE RETURNDATASIZE DUP3 MSTORE RETURNDATASIZE PUSH1 0x0 PUSH1 0x20 DUP5 ADD RETURNDATACOPY PUSH2 0x1011 JUMP JUMPDEST PUSH1 0x60 SWAP2 POP JUMPDEST POP POP SWAP1 POP DUP1 PUSH2 0x105C JUMPI PUSH1 0x40 MLOAD PUSH3 0x461BCD PUSH1 0xE5 SHL DUP2 MSTORE PUSH1 0x20 PUSH1 0x4 DUP3 ADD MSTORE PUSH1 0x17 PUSH1 0x24 DUP3 ADD MSTORE PUSH23 0x141BDD08199959481D1C985B9CD9995C8819985A5B1959 PUSH1 0x4A SHL PUSH1 0x44 DUP3 ADD MSTORE PUSH1 0x64 ADD PUSH2 0x38E JUMP JUMPDEST PUSH1 0x7 SLOAD PUSH1 0x40 MLOAD DUP5 DUP2 MSTORE PUSH1 0x1 PUSH1 0x1 PUSH1 0xA0 SHL SUB SWAP1 SWAP2 AND SWAP1 PUSH1 0x0 DUP1 MLOAD PUSH1 0x20 PUSH2 0x12BE DUP4 CODECOPY DUP2 MLOAD SWAP2 MSTORE SWAP1 PUSH1 0x20 ADD PUSH1 0x40 MLOAD DUP1 SWAP2 SUB SWAP1 LOG2 PUSH1 0x8 DUP1 SLOAD PUSH1 0x1 PUSH1 0x1 PUSH1 0xA0 SHL SUB NOT AND CALLER SWAP1 DUP2 OR SWAP1 SWAP2 SSTORE PUSH1 0x9 DUP4 SWAP1 SSTORE PUSH1 0x0 PUSH1 0x5 DUP2 SWAP1 SSTORE PUSH1 0x40 MLOAD SWAP1 SWAP2 SWAP1 DUP5 SWAP1 DUP4 DUP2 DUP2 DUP2 DUP6 DUP8 GAS CALL SWAP3 POP POP POP RETURNDATASIZE DUP1 PUSH1 0x0 DUP2 EQ PUSH2 0x10ED JUMPI PUSH1 0x40 MLOAD SWAP2 POP PUSH1 0x1F NOT PUSH1 0x3F RETURNDATASIZE ADD AND DUP3 ADD PUSH1 0x40 MSTORE RETURNDATASIZE DUP3 MSTORE RETURNDATASIZE PUSH1 0x0 PUSH1 0x20 DUP5 ADD RETURNDATACOPY PUSH2 0x10F2 JUMP JUMPDEST PUSH1 0x60 SWAP2 POP JUMPDEST POP POP SWAP1 POP DUP1 PUSH2 0x113C JUMPI PUSH1 0x40 MLOAD PUSH3 0x461BCD PUSH1 0xE5 SHL DUP2 MSTORE PUSH1 0x20 PUSH1 0x4 DUP3 ADD MSTORE PUSH1 0x16 PUSH1 0x24 DUP3 ADD MSTORE PUSH22 0x15DA5B9B995C881D1C985B9CD9995C8819985A5B1959 PUSH1 0x52 SHL PUSH1 0x44 DUP3 ADD MSTORE PUSH1 0x64 ADD PUSH2 0x38E JUMP JUMPDEST PUSH1 0x40 MLOAD DUP4 DUP2 MSTORE CALLER SWAP1 PUSH32 0x9C2270628A9B29D30AE96B6C4C14ED646EE134FEBDCE38A5B77F2BDE9CEA2E20 SWAP1 PUSH1 0x20 ADD PUSH1 0x40 MLOAD DUP1 SWAP2 SUB SWAP1 LOG2 POP POP POP POP JUMPDEST PUSH1 0x5 SLOAD PUSH1 0x40 DUP1 MLOAD CALLVALUE DUP2 MSTORE PUSH1 0x20 DUP2 ADD SWAP3 SWAP1 SWAP3 MSTORE DUP3 ISZERO ISZERO SWAP1 DUP3 ADD MSTORE CALLER SWAP1 PUSH32 0x5AC4CC4A151D8CE2D7503BFBDAC383F6409F30E99F6B144E5C96EF2EB29CDD6C SWAP1 PUSH1 0x60 ADD PUSH1 0x40 MLOAD DUP1 SWAP2 SUB SWAP1 LOG2 POP POP POP POP JUMP JUMPDEST PUSH1 0x0 PUSH1 0x20 DUP3 DUP5 SUB SLT ISZERO PUSH2 0x11D6 JUMPI PUSH1 0x0 DUP1 REVERT JUMPDEST POP CALLDATALOAD SWAP2 SWAP1 POP JUMP JUMPDEST PUSH1 0x0 PUSH1 0x20 DUP3 DUP5 SUB SLT ISZERO PUSH2 0x11EF JUMPI PUSH1 0x0 DUP1 REVERT JUMPDEST DUP2 CALLDATALOAD PUSH1 0x1 PUSH1 0x1 PUSH1 0xA0 SHL SUB DUP2 AND DUP2 EQ PUSH2 0x1206 JUMPI PUSH1 0x0 DUP1 REVERT JUMPDEST SWAP4 SWAP3 POP POP POP JUMP JUMPDEST PUSH4 0x4E487B71 PUSH1 0xE0 SHL PUSH1 0x0 MSTORE PUSH1 0x11 PUSH1 0x4 MSTORE PUSH1 0x24 PUSH1 0x0 REVERT JUMPDEST DUP1 DUP3 MUL DUP2 ISZERO DUP3 DUP3 DIV DUP5 EQ OR PUSH2 0x123A JUMPI PUSH2 0x123A PUSH2 0x120D JUMP JUMPDEST SWAP3 SWAP2 POP POP JUMP JUMPDEST PUSH4 0x4E487B71 PUSH1 0xE0 SHL PUSH1 0x0 MSTORE PUSH1 0x12 PUSH1 0x4 MSTORE PUSH1 0x24 PUSH1 0x0 REVERT JUMPDEST PUSH1 0x0 DUP3 PUSH2 0x1265 JUMPI PUSH2 0x1265 PUSH2 0x1240 JUMP JUMPDEST POP DIV SWAP1 JUMP JUMPDEST DUP2 DUP2 SUB DUP2 DUP2 GT ISZERO PUSH2 0x123A JUMPI PUSH2 0x123A PUSH2 0x120D JUMP JUMPDEST DUP1 DUP3 ADD DUP1 DUP3 GT ISZERO PUSH2 0x123A JUMPI PUSH2 0x123A PUSH2 0x120D JUMP JUMPDEST PUSH1 0x0 PUSH1 0x1 DUP3 ADD PUSH2 0x12A2 JUMPI PUSH2 0x12A2 PUSH2 0x120D JUMP JUMPDEST POP PUSH1 0x1 ADD SWAP1 JUMP JUMPDEST PUSH1 0x0 DUP3 PUSH2 0x12B8 JUMPI PUSH2 0x12B8 PUSH2 0x1240 JUMP JUMPDEST POP MOD SWAP1 JUMP INVALID PC PUSH26 0x3DF5F4D270351F09EFD433DB93C69432142B69DC7EE38195FC63 DIV PUSH25 0xC79FA26469706673582212200A1D4A2235667935FF421EE3B2 0x4E DUP10 0xAF PUSH1 0x8B 0xDF 0x49 0xAB LOG1 PUSH14 0xF8B774B375732C3EB464736F6C63 NUMBER STOP ADDMOD EQ STOP CALLER "},"methodIdentifiers":{"buyMultipleTickets(uint256)":"20c94be8","buyTicket()":"edca914c","feeCollector()":"c415b95c","getPot()":"403c9fa8","jackpotFeePercentage()":"966e043e","lastWinAmount()":"98ec58fd","lastWinner()":"fe188184","owner()":"8da5cb5b","pot()":"4ba2363a","renounceOwnership()":"715018a6","rescueETH()":"20800a00","ticketFeePercentage()":"5008dab6","ticketPrice()":"1209b1f6","transferOwnership(address)":"f2fde38b","updateFeeCollector(address)":"d2c35ce8","updateJackpotFeePercentage(uint256)":"a267a2db","updateTicketFeePercentage(uint256)":"4f7c86e6","updateTicketPrice(uint256)":"f02137c8","updateWinChance(uint256)":"7223f06e","winChance()":"6dbeffbe"}}}}}