{
  "_format": "hh-sol-artifact-1",
  "contractName": "RollingRaffle",
  "sourceName": "contracts/RollingRaffle.sol",
  "abi": [
    {
      "inputs": [],
      "stateMutability": "nonpayable",
      "type": "constructor"
    },
    {
      "anonymous": false,
      "inputs": [
        {
          "indexed": true,
          "internalType": "address",
          "name": "to",
          "type": "address"
        },
        {
          "indexed": false,
          "internalType": "uint256",
          "name": "amount",
          "type": "uint256"
        }
      ],
      "name": "FeeSent",
      "type": "event"
    },
    {
      "anonymous": false,
      "inputs": [
        {
          "indexed": true,
          "internalType": "address",
          "name": "player",
          "type": "address"
        },
        {
          "indexed": false,
          "internalType": "uint256",
          "name": "quantity",
          "type": "uint256"
        },
        {
          "indexed": false,
          "internalType": "uint256",
          "name": "totalAmount",
          "type": "uint256"
        },
        {
          "indexed": false,
          "internalType": "uint256",
          "name": "pot",
          "type": "uint256"
        }
      ],
      "name": "MultipleTicketsBought",
      "type": "event"
    },
    {
      "anonymous": false,
      "inputs": [
        {
          "indexed": true,
          "internalType": "address",
          "name": "previousOwner",
          "type": "address"
        },
        {
          "indexed": true,
          "internalType": "address",
          "name": "newOwner",
          "type": "address"
        }
      ],
      "name": "OwnershipTransferred",
      "type": "event"
    },
    {
      "anonymous": false,
      "inputs": [
        {
          "indexed": true,
          "internalType": "address",
          "name": "to",
          "type": "address"
        },
        {
          "indexed": false,
          "internalType": "uint256",
          "name": "amount",
          "type": "uint256"
        }
      ],
      "name": "RefundSent",
      "type": "event"
    },
    {
      "anonymous": false,
      "inputs": [
        {
          "indexed": true,
          "internalType": "address",
          "name": "player",
          "type": "address"
        },
        {
          "indexed": false,
          "internalType": "uint256",
          "name": "amount",
          "type": "uint256"
        },
        {
          "indexed": false,
          "internalType": "uint256",
          "name": "pot",
          "type": "uint256"
        },
        {
          "indexed": false,
          "internalType": "bool",
          "name": "won",
          "type": "bool"
        }
      ],
      "name": "TicketBought",
      "type": "event"
    },
    {
      "anonymous": false,
      "inputs": [
        {
          "indexed": true,
          "internalType": "address",
          "name": "player",
          "type": "address"
        },
        {
          "indexed": false,
          "internalType": "uint256",
          "name": "prizeAmount",
          "type": "uint256"
        }
      ],
      "name": "Winner",
      "type": "event"
    },
    {
      "inputs": [
        {
          "internalType": "uint256",
          "name": "quantity",
          "type": "uint256"
        }
      ],
      "name": "buyMultipleTickets",
      "outputs": [],
      "stateMutability": "payable",
      "type": "function"
    },
    {
      "inputs": [],
      "name": "buyTicket",
      "outputs": [],
      "stateMutability": "payable",
      "type": "function"
    },
    {
      "inputs": [],
      "name": "feeCollector",
      "outputs": [
        {
          "internalType": "address",
          "name": "",
          "type": "address"
        }
      ],
      "stateMutability": "view",
      "type": "function"
    },
    {
      "inputs": [],
      "name": "getPot",
      "outputs": [
        {
          "internalType": "uint256",
          "name": "",
          "type": "uint256"
        }
      ],
      "stateMutability": "view",
      "type": "function"
    },
    {
      "inputs": [],
      "name": "jackpotFeePercentage",
      "outputs": [
        {
          "internalType": "uint256",
          "name": "",
          "type": "uint256"
        }
      ],
      "stateMutability": "view",
      "type": "function"
    },
    {
      "inputs": [],
      "name": "lastWinAmount",
      "outputs": [
        {
          "internalType": "uint256",
          "name": "",
          "type": "uint256"
        }
      ],
      "stateMutability": "view",
      "type": "function"
    },
    {
      "inputs": [],
      "name": "lastWinner",
      "outputs": [
        {
          "internalType": "address",
          "name": "",
          "type": "address"
        }
      ],
      "stateMutability": "view",
      "type": "function"
    },
    {
      "inputs": [],
      "name": "owner",
      "outputs": [
        {
          "internalType": "address",
          "name": "",
          "type": "address"
        }
      ],
      "stateMutability": "view",
      "type": "function"
    },
    {
      "inputs": [],
      "name": "pot",
      "outputs": [
        {
          "internalType": "uint256",
          "name": "",
          "type": "uint256"
        }
      ],
      "stateMutability": "view",
      "type": "function"
    },
    {
      "inputs": [],
      "name": "renounceOwnership",
      "outputs": [],
      "stateMutability": "nonpayable",
      "type": "function"
    },
    {
      "inputs": [],
      "name": "rescueETH",
      "outputs": [],
      "stateMutability": "nonpayable",
      "type": "function"
    },
    {
      "inputs": [],
      "name": "ticketFeePercentage",
      "outputs": [
        {
          "internalType": "uint256",
          "name": "",
          "type": "uint256"
        }
      ],
      "stateMutability": "view",
      "type": "function"
    },
    {
      "inputs": [],
      "name": "ticketPrice",
      "outputs": [
        {
          "internalType": "uint256",
          "name": "",
          "type": "uint256"
        }
      ],
      "stateMutability": "view",
      "type": "function"
    },
    {
      "inputs": [
        {
          "internalType": "address",
          "name": "newOwner",
          "type": "address"
        }
      ],
      "name": "transferOwnership",
      "outputs": [],
      "stateMutability": "nonpayable",
      "type": "function"
    },
    {
      "inputs": [
        {
          "internalType": "address",
          "name": "_feeCollector",
          "type": "address"
        }
      ],
      "name": "updateFeeCollector",
      "outputs": [],
      "stateMutability": "nonpayable",
      "type": "function"
    },
    {
      "inputs": [
        {
          "internalType": "uint256",
          "name": "_jackpotFeePercentage",
          "type": "uint256"
        }
      ],
      "name": "updateJackpotFeePercentage",
      "outputs": [],
      "stateMutability": "nonpayable",
      "type": "function"
    },
    {
      "inputs": [
        {
          "internalType": "uint256",
          "name": "_ticketFeePercentage",
          "type": "uint256"
        }
      ],
      "name": "updateTicketFeePercentage",
      "outputs": [],
      "stateMutability": "nonpayable",
      "type": "function"
    },
    {
      "inputs": [
        {
          "internalType": "uint256",
          "name": "_ticketPrice",
          "type": "uint256"
        }
      ],
      "name": "updateTicketPrice",
      "outputs": [],
      "stateMutability": "nonpayable",
      "type": "function"
    },
    {
      "inputs": [
        {
          "internalType": "uint256",
          "name": "_winChance",
          "type": "uint256"
        }
      ],
      "name": "updateWinChance",
      "outputs": [],
      "stateMutability": "nonpayable",
      "type": "function"
    },
    {
      "inputs": [],
      "name": "winChance",
      "outputs": [
        {
          "internalType": "uint256",
          "name": "",
          "type": "uint256"
        }
      ],
      "stateMutability": "view",
      "type": "function"
    }
  ],
  "bytecode": "0x60806040526608e1bc9bf04000600255600a6003556005600455601460065534801561002a57600080fd5b506100343361004f565b60018055600780546001600160a01b0319163317905561009f565b600080546001600160a01b038381166001600160a01b0319831681178455604051919092169283917f8be0079c531659141344cd1fd0a4f28419497f9722a3daafe3b4186f6b6457e09190a35050565b611313806100ae6000396000f3fe60806040526004361061011f5760003560e01c80638da5cb5b116100a0578063d2c35ce811610064578063d2c35ce8146102c1578063edca914c146102e1578063f02137c8146102e9578063f2fde38b14610309578063fe1881841461032957600080fd5b80638da5cb5b14610223578063966e043e1461025557806398ec58fd1461026b578063a267a2db14610281578063c415b95c146102a157600080fd5b80634f7c86e6116100e75780634f7c86e6146101a25780635008dab6146101c25780636dbeffbe146101d8578063715018a6146101ee5780637223f06e1461020357600080fd5b80631209b1f61461012457806320800a001461014d57806320c94be814610164578063403c9fa8146101775780634ba2363a1461018c575b600080fd5b34801561013057600080fd5b5061013a60025481565b6040519081526020015b60405180910390f35b34801561015957600080fd5b50610162610349565b005b6101626101723660046111c4565b610430565b34801561018357600080fd5b5060055461013a565b34801561019857600080fd5b5061013a60055481565b3480156101ae57600080fd5b506101626101bd3660046111c4565b6109ff565b3480156101ce57600080fd5b5061013a60035481565b3480156101e457600080fd5b5061013a60065481565b3480156101fa57600080fd5b50610162610a5d565b34801561020f57600080fd5b5061016261021e3660046111c4565b610a71565b34801561022f57600080fd5b506000546001600160a01b03165b6040516001600160a01b039091168152602001610144565b34801561026157600080fd5b5061013a60045481565b34801561027757600080fd5b5061013a60095481565b34801561028d57600080fd5b5061016261029c3660046111c4565b610ad8565b3480156102ad57600080fd5b5060075461023d906001600160a01b031681565b3480156102cd57600080fd5b506101626102dc3660046111dd565b610b36565b610162610ba8565b3480156102f557600080fd5b506101626103043660046111c4565b610c12565b34801561031557600080fd5b506101626103243660046111dd565b610c7b565b34801561033557600080fd5b5060085461023d906001600160a01b031681565b610351610cf1565b47806103975760405162461bcd60e51b815260206004820152601060248201526f4e6f2045544820746f2072657363756560801b60448201526064015b60405180910390fd5b600080546040516001600160a01b039091169083908381818185875af1925050503d80600081146103e4576040519150601f19603f3d011682016040523d82523d6000602084013e6103e9565b606091505b505090508061042c5760405162461bcd60e51b815260206004820152600f60248201526e151c985b9cd9995c8819985a5b1959608a1b604482015260640161038e565b5050565b610438610d4b565b600081116104885760405162461bcd60e51b815260206004820152601c60248201527f4d75737420627579206174206c65617374206f6e65207469636b657400000000604482015260640161038e565b806002546104969190611223565b34146104e45760405162461bcd60e51b815260206004820181905260248201527f496e636f72726563742045544820616d6f756e7420666f72207469636b657473604482015260640161038e565b60008060008060005b858110156107b357600060646003546002546105099190611223565b6105139190611256565b9050600081600254610525919061126a565b6007546040519192506000916001600160a01b039091169084908381818185875af1925050503d8060008114610577576040519150601f19603f3d011682016040523d82523d6000602084013e61057c565b606091505b50509050806105c35760405162461bcd60e51b8152602060048201526013602482015272119959481d1c985b9cd9995c8819985a5b1959606a1b604482015260640161038e565b6007546040518481526001600160a01b03909116906000805160206112be8339815191529060200160405180910390a28160056000828254610605919061127d565b9091555085905061061581611290565b9550506000610622610da4565b905080801561063357506000600554115b1561079c5760019850339750600060646004546005546106539190611223565b61065d9190611256565b90508060055461066d919061126a565b6007546040519199506000916001600160a01b039091169083908381818185875af1925050503d80600081146106bf576040519150601f19603f3d011682016040523d82523d6000602084013e6106c4565b606091505b505090508061070f5760405162461bcd60e51b8152602060048201526017602482015276141bdd08199959481d1c985b9cd9995c8819985a5b1959604a1b604482015260640161038e565b6007546040518381526001600160a01b03909116906000805160206112be8339815191529060200160405180910390a2600880546001600160a01b0319163390811790915560098a905560006005556040518a81527f9c2270628a9b29d30ae96b6c4c14ed646ee134febdce38a5b77f2bde9cea2e209060200160405180910390a25050505050506107b3565b5050505080806107ab90611290565b9150506104ed565b5060006107c0828761126a565b905080156108a4576000816002546107d89190611223565b604051909150600090339083908381818185875af1925050503d806000811461081d576040519150601f19603f3d011682016040523d82523d6000602084013e610822565b606091505b505090508061086c5760405162461bcd60e51b81526020600482015260166024820152751499599d5b99081d1c985b9cd9995c8819985a5b195960521b604482015260640161038e565b60405182815233907fe309aa15fd2f6bd8a58603632508694071e7d35e967bdbb827926e429b7ef34d9060200160405180910390a250505b8415610948576000846001600160a01b03168460405160006040518083038185875af1925050503d80600081146108f7576040519150601f19603f3d011682016040523d82523d6000602084013e6108fc565b606091505b50509050806109465760405162461bcd60e51b815260206004820152601660248201527515da5b9b995c881d1c985b9cd9995c8819985a5b195960521b604482015260640161038e565b505b336001600160a01b03167f193c33ec72695019bb235376e1047b07f5d0a70e5a1c8892cee5bee0af48d16983846002546109829190611223565b6005546040805193845260208401929092529082015260600160405180910390a26002546005546040805192835260208301919091528615159082015233907f5ac4cc4a151d8ce2d7503bfbdac383f6409f30e99f6b144e5c96ef2eb29cdd6c9060600160405180910390a250505050506109fc60018055565b50565b610a07610cf1565b601e811115610a585760405162461bcd60e51b815260206004820152601c60248201527f5469636b6574206665652063616e6e6f74206578636565642033302500000000604482015260640161038e565b600355565b610a65610cf1565b610a6f6000610e0a565b565b610a79610cf1565b60008111610ad35760405162461bcd60e51b815260206004820152602160248201527f57696e206368616e6365206d7573742062652067726561746572207468616e206044820152600360fc1b606482015260840161038e565b600655565b610ae0610cf1565b601e811115610b315760405162461bcd60e51b815260206004820152601d60248201527f4a61636b706f74206665652063616e6e6f742065786365656420333025000000604482015260640161038e565b600455565b610b3e610cf1565b6001600160a01b038116610b865760405162461bcd60e51b815260206004820152600f60248201526e496e76616c6964206164647265737360881b604482015260640161038e565b600780546001600160a01b0319166001600160a01b0392909216919091179055565b610bb0610d4b565b6002543414610c015760405162461bcd60e51b815260206004820152601c60248201527f4d7573742073656e64206578616374207469636b657420707269636500000000604482015260640161038e565b610c09610e5a565b610a6f60018055565b610c1a610cf1565b60008111610c765760405162461bcd60e51b815260206004820152602360248201527f5469636b6574207072696365206d75737420626520677265617465722074686160448201526206e20360ec1b606482015260840161038e565b600255565b610c83610cf1565b6001600160a01b038116610ce85760405162461bcd60e51b815260206004820152602660248201527f4f776e61626c653a206e6577206f776e657220697320746865207a65726f206160448201526564647265737360d01b606482015260840161038e565b6109fc81610e0a565b6000546001600160a01b03163314610a6f5760405162461bcd60e51b815260206004820181905260248201527f4f776e61626c653a2063616c6c6572206973206e6f7420746865206f776e6572604482015260640161038e565b600260015403610d9d5760405162461bcd60e51b815260206004820152601f60248201527f5265656e7472616e637947756172643a207265656e7472616e742063616c6c00604482015260640161038e565b6002600155565b6000806006544442335a6040805160208101959095528401929092526bffffffffffffffffffffffff19606091821b169083015260748201526094016040516020818303038152906040528051906020012060001c610e0391906112a9565b1592915050565b600080546001600160a01b038381166001600160a01b0319831681178455604051919092169283917f8be0079c531659141344cd1fd0a4f28419497f9722a3daafe3b4186f6b6457e09190a35050565b6000606460035434610e6c9190611223565b610e769190611256565b90506000610e84823461126a565b6007546040519192506000916001600160a01b039091169084908381818185875af1925050503d8060008114610ed6576040519150601f19603f3d011682016040523d82523d6000602084013e610edb565b606091505b5050905080610f225760405162461bcd60e51b8152602060048201526013602482015272119959481d1c985b9cd9995c8819985a5b1959606a1b604482015260640161038e565b6007546040518481526001600160a01b03909116906000805160206112be8339815191529060200160405180910390a28160056000828254610f64919061127d565b9091555060009050610f74610da4565b9050808015610f8557506000600554115b156111765760006064600454600554610f9e9190611223565b610fa89190611256565b9050600081600554610fba919061126a565b6007546040519192506000916001600160a01b039091169084908381818185875af1925050503d806000811461100c576040519150601f19603f3d011682016040523d82523d6000602084013e611011565b606091505b505090508061105c5760405162461bcd60e51b8152602060048201526017602482015276141bdd08199959481d1c985b9cd9995c8819985a5b1959604a1b604482015260640161038e565b6007546040518481526001600160a01b03909116906000805160206112be8339815191529060200160405180910390a2600880546001600160a01b0319163390811790915560098390556000600581905560405190919084908381818185875af1925050503d80600081146110ed576040519150601f19603f3d011682016040523d82523d6000602084013e6110f2565b606091505b505090508061113c5760405162461bcd60e51b815260206004820152601660248201527515da5b9b995c881d1c985b9cd9995c8819985a5b195960521b604482015260640161038e565b60405183815233907f9c2270628a9b29d30ae96b6c4c14ed646ee134febdce38a5b77f2bde9cea2e209060200160405180910390a2505050505b6005546040805134815260208101929092528215159082015233907f5ac4cc4a151d8ce2d7503bfbdac383f6409f30e99f6b144e5c96ef2eb29cdd6c9060600160405180910390a250505050565b6000602082840312156111d657600080fd5b5035919050565b6000602082840312156111ef57600080fd5b81356001600160a01b038116811461120657600080fd5b9392505050565b634e487b7160e01b600052601160045260246000fd5b808202811582820484141761123a5761123a61120d565b92915050565b634e487b7160e01b600052601260045260246000fd5b60008261126557611265611240565b500490565b8181038181111561123a5761123a61120d565b8082018082111561123a5761123a61120d565b6000600182016112a2576112a261120d565b5060010190565b6000826112b8576112b8611240565b50069056fe58793df5f4d270351f09efd433db93c69432142b69dc7ee38195fc630478c79fa26469706673582212200a1d4a2235667935ff421ee3b24e89af608bdf49aba16df8b774b375732c3eb464736f6c63430008140033",
  "linkReferences": {},
  "deployedLinkReferences": {}
}