{
  "_format": "hh-sol-artifact-1",
  "contractName": "RaffleFactory",
  "sourceName": "contracts/RaffleFactory.sol",
  "abi": [
    {
      "inputs": [
        {
          "internalType": "address",
          "name": "_platformFeeCollector",
          "type": "address"
        }
      ],
      "stateMutability": "nonpayable",
      "type": "constructor"
    },
    {
      "anonymous": false,
      "inputs": [
        {
          "indexed": true,
          "internalType": "address",
          "name": "previousOwner",
          "type": "address"
        },
        {
          "indexed": true,
          "internalType": "address",
          "name": "newOwner",
          "type": "address"
        }
      ],
      "name": "OwnershipTransferred",
      "type": "event"
    },
    {
      "anonymous": false,
      "inputs": [
        {
          "indexed": true,
          "internalType": "address",
          "name": "creator",
          "type": "address"
        },
        {
          "indexed": false,
          "internalType": "address",
          "name": "raffleAddress",
          "type": "address"
        },
        {
          "indexed": false,
          "internalType": "uint256",
          "name": "ticketPrice",
          "type": "uint256"
        }
      ],
      "name": "RaffleCreated",
      "type": "event"
    },
    {
      "inputs": [
        {
          "internalType": "uint256",
          "name": "ticketPrice",
          "type": "uint256"
        },
        {
          "internalType": "uint256",
          "name": "ticketFeePercentage",
          "type": "uint256"
        },
        {
          "internalType": "uint256",
          "name": "jackpotFeePercentage",
          "type": "uint256"
        },
        {
          "internalType": "uint256",
          "name": "winChance",
          "type": "uint256"
        },
        {
          "internalType": "address",
          "name": "userFeeCollector",
          "type": "address"
        },
        {
          "internalType": "address",
          "name": "defaultFeeCollector",
          "type": "address"
        }
      ],
      "name": "createRaffle",
      "outputs": [
        {
          "internalType": "address",
          "name": "",
          "type": "address"
        }
      ],
      "stateMutability": "nonpayable",
      "type": "function"
    },
    {
      "inputs": [
        {
          "internalType": "uint256",
          "name": "",
          "type": "uint256"
        }
      ],
      "name": "createdRaffles",
      "outputs": [
        {
          "internalType": "address",
          "name": "",
          "type": "address"
        }
      ],
      "stateMutability": "view",
      "type": "function"
    },
    {
      "inputs": [],
      "name": "getRaffleCount",
      "outputs": [
        {
          "internalType": "uint256",
          "name": "",
          "type": "uint256"
        }
      ],
      "stateMutability": "view",
      "type": "function"
    },
    {
      "inputs": [
        {
          "internalType": "uint256",
          "name": "start",
          "type": "uint256"
        },
        {
          "internalType": "uint256",
          "name": "limit",
          "type": "uint256"
        }
      ],
      "name": "getRaffles",
      "outputs": [
        {
          "internalType": "address[]",
          "name": "",
          "type": "address[]"
        }
      ],
      "stateMutability": "view",
      "type": "function"
    },
    {
      "inputs": [],
      "name": "owner",
      "outputs": [
        {
          "internalType": "address",
          "name": "",
          "type": "address"
        }
      ],
      "stateMutability": "view",
      "type": "function"
    },
    {
      "inputs": [],
      "name": "platformFeeCollector",
      "outputs": [
        {
          "internalType": "address",
          "name": "",
          "type": "address"
        }
      ],
      "stateMutability": "view",
      "type": "function"
    },
    {
      "inputs": [],
      "name": "renounceOwnership",
      "outputs": [],
      "stateMutability": "nonpayable",
      "type": "function"
    },
    {
      "inputs": [
        {
          "internalType": "address",
          "name": "newOwner",
          "type": "address"
        }
      ],
      "name": "transferOwnership",
      "outputs": [],
      "stateMutability": "nonpayable",
      "type": "function"
    },
    {
      "inputs": [
        {
          "internalType": "address",
          "name": "_platformFeeCollector",
          "type": "address"
        }
      ],
      "name": "updatePlatformFeeCollector",
      "outputs": [],
      "stateMutability": "nonpayable",
      "type": "function"
    }
  ],
  "bytecode": "0x608060405234801561001057600080fd5b5060405161213c38038061213c83398101604081905261002f916100ad565b6100383361005d565b600280546001600160a01b0319166001600160a01b03929092169190911790556100dd565b600080546001600160a01b038381166001600160a01b0319831681178455604051919092169283917f8be0079c531659141344cd1fd0a4f28419497f9722a3daafe3b4186f6b6457e09190a35050565b6000602082840312156100bf57600080fd5b81516001600160a01b03811681146100d657600080fd5b9392505050565b612050806100ec6000396000f3fe608060405234801561001057600080fd5b50600436106100935760003560e01c806355274bb41161006657806355274bb41461010e578063715018a614610121578063853a65f9146101295780638da5cb5b1461013c578063f2fde38b1461014d57600080fd5b806307ad7d64146100985780631d8c6086146100c85780634a17b243146100d957806352889e7c146100f9575b600080fd5b6100ab6100a6366004610795565b610160565b6040516001600160a01b0390911681526020015b60405180910390f35b6001546040519081526020016100bf565b6100ec6100e73660046107ed565b610485565b6040516100bf919061080f565b61010c61010736600461085c565b610587565b005b6100ab61011c36600461087e565b6105fe565b61010c610628565b6002546100ab906001600160a01b031681565b6000546001600160a01b03166100ab565b61010c61015b36600461085c565b61063c565b60008083836040516101719061075f565b6001600160a01b03928316815291166020820152604001604051809103906000f0801580156101a4573d6000803e3d6000fd5b50905060006040516101b59061076c565b604051809103906000f0801580156101d1573d6000803e3d6000fd5b50604051631e0426f960e31b8152600481018b90529091506001600160a01b0382169063f02137c890602401600060405180830381600087803b15801561021757600080fd5b505af115801561022b573d6000803e3d6000fd5b50506040516327be437360e11b8152600481018b90526001600160a01b0384169250634f7c86e69150602401600060405180830381600087803b15801561027157600080fd5b505af1158015610285573d6000803e3d6000fd5b505060405163a267a2db60e01b8152600481018a90526001600160a01b038416925063a267a2db9150602401600060405180830381600087803b1580156102cb57600080fd5b505af11580156102df573d6000803e3d6000fd5b5050604051633911f83760e11b8152600481018990526001600160a01b0384169250637223f06e9150602401600060405180830381600087803b15801561032557600080fd5b505af1158015610339573d6000803e3d6000fd5b5050604051631a586b9d60e31b81526001600160a01b0385811660048301528416925063d2c35ce89150602401600060405180830381600087803b15801561038057600080fd5b505af1158015610394573d6000803e3d6000fd5b50506001805480820182556000919091527fb10e2d527612073b26eecdfd717e6a320cf44b4afac2b0732d9fcbe2b7fa0cf60180546001600160a01b0319166001600160a01b03851690811790915560405163f2fde38b60e01b815233600482015290925063f2fde38b9150602401600060405180830381600087803b15801561041d57600080fd5b505af1158015610431573d6000803e3d6000fd5b5050604080516001600160a01b0385168152602081018d90523393507f8580f7ba42931e45bb681569a9f2aa5c43918a1269aed2b9b1cf9022a85b229192500160405180910390a298975050505050505050565b6060600061049383856108ad565b6001549091508111156104a557506001545b60006104b185836108c0565b905060008167ffffffffffffffff8111156104ce576104ce6108d3565b6040519080825280602002602001820160405280156104f7578160200160208202803683370190505b50905060005b8281101561057b57600161051182896108ad565b81548110610521576105216108e9565b9060005260206000200160009054906101000a90046001600160a01b0316828281518110610551576105516108e9565b6001600160a01b039092166020928302919091019091015280610573816108ff565b9150506104fd565b50925050505b92915050565b61058f6106b5565b6001600160a01b0381166105dc5760405162461bcd60e51b815260206004820152600f60248201526e496e76616c6964206164647265737360881b60448201526064015b60405180910390fd5b600280546001600160a01b0319166001600160a01b0392909216919091179055565b6001818154811061060e57600080fd5b6000918252602090912001546001600160a01b0316905081565b6106306106b5565b61063a600061070f565b565b6106446106b5565b6001600160a01b0381166106a95760405162461bcd60e51b815260206004820152602660248201527f4f776e61626c653a206e6577206f776e657220697320746865207a65726f206160448201526564647265737360d01b60648201526084016105d3565b6106b28161070f565b50565b6000546001600160a01b0316331461063a5760405162461bcd60e51b815260206004820181905260248201527f4f776e61626c653a2063616c6c6572206973206e6f7420746865206f776e657260448201526064016105d3565b600080546001600160a01b038381166001600160a01b0319831681178455604051919092169283917f8be0079c531659141344cd1fd0a4f28419497f9722a3daafe3b4186f6b6457e09190a35050565b6103418061091983390190565b6113c180610c5a83390190565b80356001600160a01b038116811461079057600080fd5b919050565b60008060008060008060c087890312156107ae57600080fd5b863595506020870135945060408701359350606087013592506107d360808801610779565b91506107e160a08801610779565b90509295509295509295565b6000806040838503121561080057600080fd5b50508035926020909101359150565b6020808252825182820181905260009190848201906040850190845b818110156108505783516001600160a01b03168352928401929184019160010161082b565b50909695505050505050565b60006020828403121561086e57600080fd5b61087782610779565b9392505050565b60006020828403121561089057600080fd5b5035919050565b634e487b7160e01b600052601160045260246000fd5b8082018082111561058157610581610897565b8181038181111561058157610581610897565b634e487b7160e01b600052604160045260246000fd5b634e487b7160e01b600052603260045260246000fd5b60006001820161091157610911610897565b506001019056fe608060405234801561001057600080fd5b5060405161034138038061034183398101604081905261002f9161007c565b600080546001600160a01b039384166001600160a01b031991821617909155600180549290931691161790556100af565b80516001600160a01b038116811461007757600080fd5b919050565b6000806040838503121561008f57600080fd5b61009883610060565b91506100a660208401610060565b90509250929050565b610283806100be6000396000f3fe60806040526004361061002d5760003560e01c80632ca5706d146101a857806375926137146101e457600080fd5b366101a35734156101a1576000610045600234610204565b6000805460405192935090916001600160a01b039091169083908381818185875af1925050503d8060008114610097576040519150601f19603f3d011682016040523d82523d6000602084013e61009c565b606091505b50509050806100f25760405162461bcd60e51b815260206004820152601860248201527f5573657220666565207472616e73666572206661696c6564000000000000000060448201526064015b60405180910390fd5b6001546000906001600160a01b031661010b8434610226565b604051600081818185875af1925050503d8060008114610147576040519150601f19603f3d011682016040523d82523d6000602084013e61014c565b606091505b505090508061019d5760405162461bcd60e51b815260206004820152601b60248201527f44656661756c7420666565207472616e73666572206661696c6564000000000060448201526064016100e9565b5050505b005b600080fd5b3480156101b457600080fd5b506000546101c8906001600160a01b031681565b6040516001600160a01b03909116815260200160405180910390f35b3480156101f057600080fd5b506001546101c8906001600160a01b031681565b60008261022157634e487b7160e01b600052601260045260246000fd5b500490565b8181038181111561024757634e487b7160e01b600052601160045260246000fd5b9291505056fea26469706673582212205f50830c36c481621aad2acd5dc4d3c81069847a3b2fb51f868e82520ca4c79e64736f6c6343000814003360806040526608e1bc9bf04000600255600a6003556005600455601460065534801561002a57600080fd5b506100343361004f565b60018055600780546001600160a01b0319163317905561009f565b600080546001600160a01b038381166001600160a01b0319831681178455604051919092169283917f8be0079c531659141344cd1fd0a4f28419497f9722a3daafe3b4186f6b6457e09190a35050565b611313806100ae6000396000f3fe60806040526004361061011f5760003560e01c80638da5cb5b116100a0578063d2c35ce811610064578063d2c35ce8146102c1578063edca914c146102e1578063f02137c8146102e9578063f2fde38b14610309578063fe1881841461032957600080fd5b80638da5cb5b14610223578063966e043e1461025557806398ec58fd1461026b578063a267a2db14610281578063c415b95c146102a157600080fd5b80634f7c86e6116100e75780634f7c86e6146101a25780635008dab6146101c25780636dbeffbe146101d8578063715018a6146101ee5780637223f06e1461020357600080fd5b80631209b1f61461012457806320800a001461014d57806320c94be814610164578063403c9fa8146101775780634ba2363a1461018c575b600080fd5b34801561013057600080fd5b5061013a60025481565b6040519081526020015b60405180910390f35b34801561015957600080fd5b50610162610349565b005b6101626101723660046111c4565b610430565b34801561018357600080fd5b5060055461013a565b34801561019857600080fd5b5061013a60055481565b3480156101ae57600080fd5b506101626101bd3660046111c4565b6109ff565b3480156101ce57600080fd5b5061013a60035481565b3480156101e457600080fd5b5061013a60065481565b3480156101fa57600080fd5b50610162610a5d565b34801561020f57600080fd5b5061016261021e3660046111c4565b610a71565b34801561022f57600080fd5b506000546001600160a01b03165b6040516001600160a01b039091168152602001610144565b34801561026157600080fd5b5061013a60045481565b34801561027757600080fd5b5061013a60095481565b34801561028d57600080fd5b5061016261029c3660046111c4565b610ad8565b3480156102ad57600080fd5b5060075461023d906001600160a01b031681565b3480156102cd57600080fd5b506101626102dc3660046111dd565b610b36565b610162610ba8565b3480156102f557600080fd5b506101626103043660046111c4565b610c12565b34801561031557600080fd5b506101626103243660046111dd565b610c7b565b34801561033557600080fd5b5060085461023d906001600160a01b031681565b610351610cf1565b47806103975760405162461bcd60e51b815260206004820152601060248201526f4e6f2045544820746f2072657363756560801b60448201526064015b60405180910390fd5b600080546040516001600160a01b039091169083908381818185875af1925050503d80600081146103e4576040519150601f19603f3d011682016040523d82523d6000602084013e6103e9565b606091505b505090508061042c5760405162461bcd60e51b815260206004820152600f60248201526e151c985b9cd9995c8819985a5b1959608a1b604482015260640161038e565b5050565b610438610d4b565b600081116104885760405162461bcd60e51b815260206004820152601c60248201527f4d75737420627579206174206c65617374206f6e65207469636b657400000000604482015260640161038e565b806002546104969190611223565b34146104e45760405162461bcd60e51b815260206004820181905260248201527f496e636f72726563742045544820616d6f756e7420666f72207469636b657473604482015260640161038e565b60008060008060005b858110156107b357600060646003546002546105099190611223565b6105139190611256565b9050600081600254610525919061126a565b6007546040519192506000916001600160a01b039091169084908381818185875af1925050503d8060008114610577576040519150601f19603f3d011682016040523d82523d6000602084013e61057c565b606091505b50509050806105c35760405162461bcd60e51b8152602060048201526013602482015272119959481d1c985b9cd9995c8819985a5b1959606a1b604482015260640161038e565b6007546040518481526001600160a01b03909116906000805160206112be8339815191529060200160405180910390a28160056000828254610605919061127d565b9091555085905061061581611290565b9550506000610622610da4565b905080801561063357506000600554115b1561079c5760019850339750600060646004546005546106539190611223565b61065d9190611256565b90508060055461066d919061126a565b6007546040519199506000916001600160a01b039091169083908381818185875af1925050503d80600081146106bf576040519150601f19603f3d011682016040523d82523d6000602084013e6106c4565b606091505b505090508061070f5760405162461bcd60e51b8152602060048201526017602482015276141bdd08199959481d1c985b9cd9995c8819985a5b1959604a1b604482015260640161038e565b6007546040518381526001600160a01b03909116906000805160206112be8339815191529060200160405180910390a2600880546001600160a01b0319163390811790915560098a905560006005556040518a81527f9c2270628a9b29d30ae96b6c4c14ed646ee134febdce38a5b77f2bde9cea2e209060200160405180910390a25050505050506107b3565b5050505080806107ab90611290565b9150506104ed565b5060006107c0828761126a565b905080156108a4576000816002546107d89190611223565b604051909150600090339083908381818185875af1925050503d806000811461081d576040519150601f19603f3d011682016040523d82523d6000602084013e610822565b606091505b505090508061086c5760405162461bcd60e51b81526020600482015260166024820152751499599d5b99081d1c985b9cd9995c8819985a5b195960521b604482015260640161038e565b60405182815233907fe309aa15fd2f6bd8a58603632508694071e7d35e967bdbb827926e429b7ef34d9060200160405180910390a250505b8415610948576000846001600160a01b03168460405160006040518083038185875af1925050503d80600081146108f7576040519150601f19603f3d011682016040523d82523d6000602084013e6108fc565b606091505b50509050806109465760405162461bcd60e51b815260206004820152601660248201527515da5b9b995c881d1c985b9cd9995c8819985a5b195960521b604482015260640161038e565b505b336001600160a01b03167f193c33ec72695019bb235376e1047b07f5d0a70e5a1c8892cee5bee0af48d16983846002546109829190611223565b6005546040805193845260208401929092529082015260600160405180910390a26002546005546040805192835260208301919091528615159082015233907f5ac4cc4a151d8ce2d7503bfbdac383f6409f30e99f6b144e5c96ef2eb29cdd6c9060600160405180910390a250505050506109fc60018055565b50565b610a07610cf1565b601e811115610a585760405162461bcd60e51b815260206004820152601c60248201527f5469636b6574206665652063616e6e6f74206578636565642033302500000000604482015260640161038e565b600355565b610a65610cf1565b610a6f6000610e0a565b565b610a79610cf1565b60008111610ad35760405162461bcd60e51b815260206004820152602160248201527f57696e206368616e6365206d7573742062652067726561746572207468616e206044820152600360fc1b606482015260840161038e565b600655565b610ae0610cf1565b601e811115610b315760405162461bcd60e51b815260206004820152601d60248201527f4a61636b706f74206665652063616e6e6f742065786365656420333025000000604482015260640161038e565b600455565b610b3e610cf1565b6001600160a01b038116610b865760405162461bcd60e51b815260206004820152600f60248201526e496e76616c6964206164647265737360881b604482015260640161038e565b600780546001600160a01b0319166001600160a01b0392909216919091179055565b610bb0610d4b565b6002543414610c015760405162461bcd60e51b815260206004820152601c60248201527f4d7573742073656e64206578616374207469636b657420707269636500000000604482015260640161038e565b610c09610e5a565b610a6f60018055565b610c1a610cf1565b60008111610c765760405162461bcd60e51b815260206004820152602360248201527f5469636b6574207072696365206d75737420626520677265617465722074686160448201526206e20360ec1b606482015260840161038e565b600255565b610c83610cf1565b6001600160a01b038116610ce85760405162461bcd60e51b815260206004820152602660248201527f4f776e61626c653a206e6577206f776e657220697320746865207a65726f206160448201526564647265737360d01b606482015260840161038e565b6109fc81610e0a565b6000546001600160a01b03163314610a6f5760405162461bcd60e51b815260206004820181905260248201527f4f776e61626c653a2063616c6c6572206973206e6f7420746865206f776e6572604482015260640161038e565b600260015403610d9d5760405162461bcd60e51b815260206004820152601f60248201527f5265656e7472616e637947756172643a207265656e7472616e742063616c6c00604482015260640161038e565b6002600155565b6000806006544442335a6040805160208101959095528401929092526bffffffffffffffffffffffff19606091821b169083015260748201526094016040516020818303038152906040528051906020012060001c610e0391906112a9565b1592915050565b600080546001600160a01b038381166001600160a01b0319831681178455604051919092169283917f8be0079c531659141344cd1fd0a4f28419497f9722a3daafe3b4186f6b6457e09190a35050565b6000606460035434610e6c9190611223565b610e769190611256565b90506000610e84823461126a565b6007546040519192506000916001600160a01b039091169084908381818185875af1925050503d8060008114610ed6576040519150601f19603f3d011682016040523d82523d6000602084013e610edb565b606091505b5050905080610f225760405162461bcd60e51b8152602060048201526013602482015272119959481d1c985b9cd9995c8819985a5b1959606a1b604482015260640161038e565b6007546040518481526001600160a01b03909116906000805160206112be8339815191529060200160405180910390a28160056000828254610f64919061127d565b9091555060009050610f74610da4565b9050808015610f8557506000600554115b156111765760006064600454600554610f9e9190611223565b610fa89190611256565b9050600081600554610fba919061126a565b6007546040519192506000916001600160a01b039091169084908381818185875af1925050503d806000811461100c576040519150601f19603f3d011682016040523d82523d6000602084013e611011565b606091505b505090508061105c5760405162461bcd60e51b8152602060048201526017602482015276141bdd08199959481d1c985b9cd9995c8819985a5b1959604a1b604482015260640161038e565b6007546040518481526001600160a01b03909116906000805160206112be8339815191529060200160405180910390a2600880546001600160a01b0319163390811790915560098390556000600581905560405190919084908381818185875af1925050503d80600081146110ed576040519150601f19603f3d011682016040523d82523d6000602084013e6110f2565b606091505b505090508061113c5760405162461bcd60e51b815260206004820152601660248201527515da5b9b995c881d1c985b9cd9995c8819985a5b195960521b604482015260640161038e565b60405183815233907f9c2270628a9b29d30ae96b6c4c14ed646ee134febdce38a5b77f2bde9cea2e209060200160405180910390a2505050505b6005546040805134815260208101929092528215159082015233907f5ac4cc4a151d8ce2d7503bfbdac383f6409f30e99f6b144e5c96ef2eb29cdd6c9060600160405180910390a250505050565b6000602082840312156111d657600080fd5b5035919050565b6000602082840312156111ef57600080fd5b81356001600160a01b038116811461120657600080fd5b9392505050565b634e487b7160e01b600052601160045260246000fd5b808202811582820484141761123a5761123a61120d565b92915050565b634e487b7160e01b600052601260045260246000fd5b60008261126557611265611240565b500490565b8181038181111561123a5761123a61120d565b8082018082111561123a5761123a61120d565b6000600182016112a2576112a261120d565b5060010190565b6000826112b8576112b8611240565b50069056fe58793df5f4d270351f09efd433db93c69432142b69dc7ee38195fc630478c79fa26469706673582212200a1d4a2235667935ff421ee3b24e89af608bdf49aba16df8b774b375732c3eb464736f6c63430008140033a26469706673582212200c7c32a25db1f97b447a016242851f81a005a46c029d7672db9a76af26edd83264736f6c63430008140033",
  "linkReferences": {},
  "deployedLinkReferences": {}
}