{
  "_format": "hh-sol-artifact-1",
  "contractName": "FeeSplitter",
  "sourceName": "contracts/RaffleFactory.sol",
  "abi": [
    {
      "inputs": [
        {
          "internalType": "address",
          "name": "_userFeeCollector",
          "type": "address"
        },
        {
          "internalType": "address",
          "name": "_defaultFeeCollector",
          "type": "address"
        }
      ],
      "stateMutability": "nonpayable",
      "type": "constructor"
    },
    {
      "inputs": [],
      "name": "defaultFeeCollector",
      "outputs": [
        {
          "internalType": "address",
          "name": "",
          "type": "address"
        }
      ],
      "stateMutability": "view",
      "type": "function"
    },
    {
      "inputs": [],
      "name": "userFeeCollector",
      "outputs": [
        {
          "internalType": "address",
          "name": "",
          "type": "address"
        }
      ],
      "stateMutability": "view",
      "type": "function"
    },
    {
      "stateMutability": "payable",
      "type": "receive"
    }
  ],
  "bytecode": "0x608060405234801561001057600080fd5b5060405161034138038061034183398101604081905261002f9161007c565b600080546001600160a01b039384166001600160a01b031991821617909155600180549290931691161790556100af565b80516001600160a01b038116811461007757600080fd5b919050565b6000806040838503121561008f57600080fd5b61009883610060565b91506100a660208401610060565b90509250929050565b610283806100be6000396000f3fe60806040526004361061002d5760003560e01c80632ca5706d146101a857806375926137146101e457600080fd5b366101a35734156101a1576000610045600234610204565b6000805460405192935090916001600160a01b039091169083908381818185875af1925050503d8060008114610097576040519150601f19603f3d011682016040523d82523d6000602084013e61009c565b606091505b50509050806100f25760405162461bcd60e51b815260206004820152601860248201527f5573657220666565207472616e73666572206661696c6564000000000000000060448201526064015b60405180910390fd5b6001546000906001600160a01b031661010b8434610226565b604051600081818185875af1925050503d8060008114610147576040519150601f19603f3d011682016040523d82523d6000602084013e61014c565b606091505b505090508061019d5760405162461bcd60e51b815260206004820152601b60248201527f44656661756c7420666565207472616e73666572206661696c6564000000000060448201526064016100e9565b5050505b005b600080fd5b3480156101b457600080fd5b506000546101c8906001600160a01b031681565b6040516001600160a01b03909116815260200160405180910390f35b3480156101f057600080fd5b506001546101c8906001600160a01b031681565b60008261022157634e487b7160e01b600052601260045260246000fd5b500490565b8181038181111561024757634e487b7160e01b600052601160045260246000fd5b9291505056fea26469706673582212205f50830c36c481621aad2acd5dc4d3c81069847a3b2fb51f868e82520ca4c79e64736f6c63430008140033",
  "linkReferences": {},
  "deployedLinkReferences": {}
}